:100000000C9443000C9460000C9460000C9460000D
:100010000C9460000C9401050C9460000C9460003A
:100020000C9460000C9460000C9460000C946000D0
:100030000C9460000C94F1030C949B030C94C90382
:100040000C9460000C9460000C9460000C946000B0
:100050000C946000D018411A731AC11AFB1BCB1AFA
:10006000421BB81E4F1FF51FF51FF51FF51FF51F8B
:10007000F51FB01F481BC91B6D1AAE1ED21BE01B1B
:10008000E61BEF1BF81B11241FBECFE5D8E0DEBF37
:10009000CDBF14E0A0E6B0E0EEE8F1E602C00590C6
:1000A0000D92A83EB107D9F716E0A8EEB4E001C062
:1000B0001D92A335B107E1F70E945C150C94C53081
:1000C0000C940000DC0120E040E050E098E115C015
:1000D000FD01E40FF51FE08138E08E2F8227F82F15
:1000E000F17080FD29272695F13009F42068315000
:1000F00011F0E695F2CF4F5F5F4F4617570741F774
:10010000822F089580914906833641F0843641F06C
:10011000823611F030E00FC036B303C033B301C0F4
:1001200030B320914B0681E090E002C0880F991F08
:100130002A95E2F73823832F089580914906833664
:1001400091F08436F1F0823649F538B320914B06B0
:1001500081E090E002C0880F991F2A95E2F7809510
:10016000832388BB089535B320914B0681E090E04E
:1001700002C0880F991F2A95E2F78095832385BBDB
:10018000089532B320914B0681E090E002C0880FC1
:10019000991F2A95E2F78095832382BB0895809169
:1001A0004906833689F08436E1F0823631F587B32B
:1001B00090914B0621E030E002C0220F331F9A9548
:1001C000E2F7822B87BB089584B390914B0621E020
:1001D00030E002C0220F331F9A95E2F7822B84BBD6
:1001E000089581B390914B0621E030E002C0220FC8
:1001F000331F9A95E2F7822B81BB089580914906BF
:10020000833651F0843671F0823689F497B3809149
:100210004A06892387BB089594B380914A068923AF
:1002200084BB089591B380914A06892381BB0895C8
:1002300080914906833681F08436D1F0823621F5EB
:1002400088B390914B0621E030E002C0220F331FAB
:100250009A95E2F7822B88BB85B390914B0621E0FB
:1002600030E002C0220F331F9A95E2F7822B85BB44
:1002700082B390914B0621E030E002C0220F331F81
:100280009A95E2F7822B82BB08951F93182FF8945A
:100290000E94CF0082E090E08115910511F0019756
:1002A000F1F7112311F00E94FE0083E290E0811526
:1002B000910511F00197F1F70E948200882309F45B
:1002C00010E08CE790E08115910511F00197F1F7AE
:1002D0000E94FE007894812F1F9108950F931F9321
:1002E000182F08E0812F81700E9445011695811119
:1002F00010680150B9F7812F1F910F9108958FEF6A
:100300000E946E0108950F931F930E949D000E940A
:10031000CF0085E395E08115910511F00197F1F784
:100320000FB7F8940E94FE0087EB90E081159105CD
:1003300011F00197F1F70E948200182F8DE794E0E9
:100340008115910511F00197F1F70E948200882331
:1003500009F411E00FBF7894812F1F910F91089538
:100360001F93182F0E9483018CEC0E946E01812F35
:100370000E946E011F9108950E9418010E94CF00F3
:1003800008958093490660934B0681E090E002C097
:10039000880F991F6A95E2F7809580934A06089521
:1003A000CF92DF92EF92FF920F931F93DF93CF9341
:1003B000CDB7DEB729970FB6F894DEBF0FBECDBF1D
:1003C0006C016093490640934B0681E090E002C0C7
:1003D000880F991F4A95E2F7809580934A068EEB25
:1003E0000E94B0018E010F5F1F4F8AE0E82EF12CB2
:1003F000EC0EFD1E0E947F01F80181938F01EE1526
:10040000FF05C1F7CE01019669E070E00E9462002D
:10041000882311F083E00AC09A8180E0298130E0CE
:10042000822B932BF6019183808380E029960FB66F
:10043000F894DEBF0FBECDBFCF91DF911F910F911A
:10044000FF90EF90DF90CF9008951F93182F609347
:10045000490640934B0681E090E002C0880F991F47
:100460004A95E2F7809580934A060E9483010E9494
:100470008200882311F482E008C084E40E94B00165
:10048000113011F00E94BC0180E01F9108958A98FC
:100490008B9892989398089581B38C70E9F708959A
:1004A0008A988B9885E090E0FC01E115F10511F048
:1004B0003197F1F78A9AFC01E115F10511F03197B6
:1004C000F1F78B9A8115910511F00197F1F70895D5
:1004D0008A9A8B9885E090E0FC01E115F10511F016
:1004E0003197F1F78A988115910511F00197F1F78D
:1004F000089598E025E030E087FF02C08A9801C0A7
:100500008A9A45E050E0F901E115F10511F03197C3
:10051000F1F78B98F901E115F10511F03197F1F739
:100520008B9AF901E115F10511F03197F1F791502E
:1005300011F0880FE1CF8A9A8B98CA018115910535
:1005400011F00197F1F780B38B9AFA01E115F105EB
:1005500011F03197F1F78695869580958170089511
:10056000682F8A9838E020E045E050E0220F8B9811
:10057000CA018115910511F00197F1F780B390E060
:10058000847090709595879595958795282B8B9A73
:10059000CA018115910511F00197F1F7315031F73A
:1005A00061118A9A8B9885E090E08115910511F090
:1005B0000197F1F78B9A822F08950F931F93182FAD
:1005C000062F0E94500280ED0E947902812F0E9426
:1005D0007902802F0E9479020E9468021F910F9178
:1005E00008951F93182F0E94500280ED0E947902F7
:1005F000812F0E9479020E9468020E94500281EDC0
:100600000E94790280E00E94B002182F0E946802C6
:10061000812F1F91089582E00E94F102682F86FFCA
:1006200004C06F7B82E00E94DD0280E00E94F10244
:10063000682F87FF04C06F7780E00E94DD02089575
:100640000E94500280ED0E94790280E00E947902AF
:100650000E94500281ED0E94790281E00E94B00266
:100660008093500681E00E94B0028093510680E0A2
:100670000E94B002809352060E946802089564E6C8
:100680000E941730492F892F6AE00E941730282FC7
:1006900030E0E4E0220F331FEA95E1F7842F0E9457
:1006A0001730892F820F089580914D060E943F03D5
:1006B000682F82E00E94DD0280914E060E943F0377
:1006C000682F81E00E94DD0280914F060E943F0367
:1006D000682F80E00E94DD0208958898899A87E457
:1006E00089B910BC1BB888ED8AB986E880BD089529
:1006F00080910A0590910B05019690930B058093CC
:100700000A0520910A0530910B0580910F05909103
:1007100010052817390731F410920C055398559895
:100720005E980895E0910A05F0910B05EB59FF4F93
:1007300080818CB908951F920F920FB60F921124E9
:100740002F933F934F935F936F937F938F939F93D9
:10075000AF93BF93EF93FF930E947803FF91EF91C4
:10076000BF91AF919F918F917F916F915F914F91C9
:100770003F912F910F900FBE0F901F9018951092E0
:100780000B0510920A05539A809165008CB9559A11
:1007900008951F920F920FB60F9211242F933F933B
:1007A0004F935F936F937F938F939F93AF93BF9379
:1007B000EF93FF9380910C05882311F00E94BF03F3
:1007C000FF91EF91BF91AF919F918F917F916F9129
:1007D0005F914F913F912F910F900FBE0F901F90FF
:1007E00018951F920F920FB60F9211242F933F93DB
:1007F0004F935F936F937F938F939F93AF93BF9329
:10080000EF93FF93E0910D05F0910E058CB1EB593C
:10081000FD4F8083E0910D05F0910E05EB59FD4FE2
:1008200080818B3359F410920E0510920D05E091E2
:100830000D05F0910E05EB59FD4F8083E0910D05FC
:10084000F0910E05EB59FD4F8081833B31F581E03E
:1008500080930C0520E030E00AC0F901EB59FD4F10
:100860008081F901EB59FF4F80832F5F3F4F8091CB
:100870000D0590910E058217930778F780910D056D
:1008800090910E0501969093100580930F050E949C
:10089000BF0310920E0510920D0580910D059091E9
:1008A0000E05019690930E0580930D05FF91EF9133
:1008B000BF91AF919F918F917F916F915F914F9178
:1008C0003F912F910F900FBE0F901F901895AE9AE9
:1008D00088E292E0FC013197F1F7AE980197F1F7C9
:1008E00008951F93182FAF9888E292E00197F1F7CF
:1008F00089B3912F907F8F70982B9BBB0E946704C8
:1009000089B31295107F8F70812B8BBB0E94670477
:100910001F9108951F93A79AA69AAF9888E292E034
:100920000197F1F789B38F7080628BBB0E946704D7
:1009300088E20E94710413E9812F8A95F1F78CE017
:100940000E947104812F8A95F1F781E00E94710461
:1009500089E995E10197F1F786E00E9471041A9503
:10096000F1F780E991E024E131E0F9013197F1F705
:100970000197D9F71F9108951F93182FAF9A88E216
:1009800092E00197F1F789B3912F907F8F70982BA8
:100990009BBB0E94670489B31295107F8F70812BD7
:1009A0008BBB0E9467041F9108950F931F93CF93F1
:1009B000DF938A01823061F0833018F4813069F46A
:1009C00005C0833039F0843041F406C0605805C05A
:1009D000605403C06C5601C06C52862F0E94710493
:1009E000C0E0D0E0F801EC0FFD1F80810E94BC0444
:1009F0002196C431D105B1F7DF91CF911F910F91AD
:100A000008951F920F920FB60F9211242F933F93C8
:100A10004F935F938F939F938FE184BD2091440602
:100A2000309145062F5F3F4F309345062093440693
:100A3000409111055091120580914606909147060C
:100A40008095909582239323842B952B9093120568
:100A50008093110530934706209346069F918F910E
:100A60005F914F913F912F910F900FBE0F901F906C
:100A70001895CF93DF93FB01DA01E901BC016F7098
:100A8000707097FF0FC044275527481B590B34E05F
:100A9000569547953A95E1F720E130E0261B370B54
:100AA0006DE208C0AC0124E0569547952A95E1F720
:100AB0009B016BE2892B09F460E25183408381E75B
:100AC00092E0AC01249FC001259F900D349F900DB2
:100AD00011248D939C936883DF91CF910895CF92D9
:100AE000DF92EF92FF920F931F93CF93DF9380914A
:100AF000E804813021F0823009F050C1FAC08091C1
:100B000096048230A1F0833011F18130C9F58091D3
:100B1000B30490E0805D94412091B00444E6249FAA
:100B200090011124820F931F2091B1041FC0809166
:100B3000C70490E0805D94412091C40444E6249F62
:100B400090011124820F931F2091C5040FC0809142
:100B5000DB0490E0805D94412091D80444E6249F1A
:100B600090011124820F931F2091D9044AE0249F01
:100B700090011124820F931F9093EB048093EA0459
:100B8000C091EA04D091EB04209709F407C1C0900A
:100B90006000D090610080916400282F30E0C60191
:100BA0008C1B9D0B281739071CF481E08093EC0403
:100BB0008091EC04882359F0A99A1CBECC15DD0560
:100BC00014F01092EC0483E38093400601C0A998CE
:100BD000CE018C199D09281739071CF481E08093F8
:100BE000ED048091ED04882309F47FC020912C0648
:100BF00030912D0640912E0650912F06809186044B
:100C000090918704A0918804B0918904821793077A
:100C1000A407B50708F069C020912C0630912D0675
:100C200040912E0650912F0680918A0490918B045A
:100C3000A0918C04B0918D04281739074A075B07EF
:100C400008F053C080914B058F5F80934B058A302D
:100C500051F589E080934B056091620070916300CB
:100C600080E090E00E94E32E60933E0570933F0584
:100C70008093400590934105E0907504F0907604D0
:100C80000091770410917804A80197010E944B2EDF
:100C90008823ACF4E0923E05F0923F0500934005B6
:100CA000109341050CC080E090E0AFE7B3E480937F
:100CB0003E0590933F05A0934005B0934105609198
:100CC0003E0570913F0580914005909141050E943D
:100CD000B72E6CBFCC16DD0624F01092ED041092F6
:100CE0004B0583E380933F0659C01CBE10924B0511
:100CF00055C08091F504813021F482E38093400651
:100D000007C0882329F480913A06882309F4A9981A
:100D100080914A05882311F010924A0510914D05E3
:100D2000112359F06091460570914705809148055F
:100D3000909149050E94B72E6CBF80914C05882385
:100D400011F010924C0560914A05662319F082E378
:100D500080933F0640E050E0112311F441E050E061
:100D600020E030E080914C05882311F421E030E050
:100D70002423352390E0662309F491E040E080913C
:100D80004B05882309F441E09423892F90E0282320
:100D90003923232B09F01CBE1092E8048091E9044A
:100DA000813021F0823009F045C1F4C020912C0639
:100DB00030912D0640912E0650912F068091860489
:100DC00090918704A0918804B0918904281739076D
:100DD0004A075B0708F4DAC020912C0630912D06F3
:100DE00040912E0650912F0680918A0490918B0499
:100DF000A0918C04B0918D04281739074A075B072E
:100E000008F0C4C08091ED04882309F013C18091DB
:100E1000270690912806A0912906B0912A060097EE
:100E2000A105B10529F480912B068F5F80932B06D5
:100E30008091270690912806A0912906B0912A0654
:100E400020912706309128064091290650912A06C4
:100E50008091790490917A04A0917B04B0917C04F4
:100E6000281739074A075B07D8F580912B06209190
:100E70007D0490E043E0249F9001112482179307A2
:100E800009F0D8C080914D058F5F80934D058A3061
:100E900061F489E080934D0580917504909176040A
:100EA000A0917704B091780404C080E090E0AFE7AF
:100EB000B3E48093460590934705A0934805B0930B
:100EC00049056091460570914705809148059091CC
:100ED00049050E94B72E6CBF84E380933F06AAC0E9
:100EE00080914D05882321F010924D0510922B061C
:100EF000F0904A05FF2059F060913A0570913B054A
:100F000080913C0590913D050E94B72E6CBF1091D9
:100F10004C05112359F06091420570914305809171
:100F20004405909145050E94B72E6CBF00914B057A
:100F3000002359F060913E0570913F058091400576
:100F4000909141050E94B72E6CBF20E030E0809167
:100F50004D05882311F421E030E080E090E011237A
:100F600011F481E090E02823392380E0FF2009F488
:100F700081E090E0002309F491E0892390E02823A8
:100F80003923232B09F456C01CBE54C01CBE10923A
:100F90004D0550C010922B06F0904A05FF2059F0E5
:100FA00060913A0570913B0580913C0590913D051B
:100FB0000E94B72E6CBF10914C05112359F060911F
:100FC00042057091430580914405909145050E942A
:100FD000B72E6CBF00914B05002359F060913E0580
:100FE00070913F0580914005909141050E94B72E78
:100FF0006CBF20E030E080914D05882311F421E0A2
:1010000030E080E090E0112311F481E090E02823AB
:10101000392380E0FF2009F481E090E0002309F407
:1010200091E0892390E028233923232B09F01CBE6B
:101030001092E904DF91CF911F910F91FF90EF90F3
:10104000DF90CF900895CF92DF92EF92FF920F93AF
:101050001F93CF93DF9380910C05882309F073C40D
:1010600081E080930C0587E491E0909310058093D4
:101070000F058BE38093650082EA80936600CC24A1
:10108000DD24C0E0D0E07601EE0CFF1CEE0CFF1C6E
:101090008701015B1A4FF801608171818281938120
:1010A00020EA36E841E050E00E944A30205DFE012F
:1010B000E959FF4F2083F80160817181828193811A
:1010C00020EA36E841E050E00E944A3020E137E271
:1010D00040E050E00E944A30205DFE01E859FF4F99
:1010E0002083F801608171818281938120EA36E852
:1010F00041E050E00E944A3020E137E240E050E019
:101100000E944A3028EE33E040E050E00E944A302E
:10111000205DFE01E759FF4F2083F8016081718156
:101120008281938120EA36E841E050E00E944A3013
:1011300020E137E240E050E00E944A3028EE33E000
:1011400040E050E00E944A3024E630E040E050E0C9
:101150000E944A30205DFE01E659FF4F2083F801CE
:10116000608171818281938120EA36E841E050E01C
:101170000E944A3020E137E240E050E00E944A30CD
:1011800028EE33E040E050E00E944A3024E630E0B0
:1011900040E050E00E944A302AE030E040E050E079
:1011A0000E944A30205DFE01E559FF4F2083F8017F
:1011B000608171818281938120EA36E841E050E0CC
:1011C0000E944A3020E137E240E050E00E944A307D
:1011D00028EE33E040E050E00E944A3024E630E060
:1011E00040E050E00E944A302AE030E040E050E029
:1011F0000E944A30605DFE01E459FF4F6083870121
:1012000009561A4FF801608171818281938120EA29
:1012100036E841E050E00E944A30205DFE01E3598B
:10122000FF4F2083F801608171818281938120EAE0
:1012300036E841E050E00E944A3020E137E240E0E9
:1012400050E00E944A30205DFE01E259FF4F2083AA
:10125000F801608171818281938120EA36E841E062
:1012600050E00E944A3020E137E240E050E00E9426
:101270004A3028EE33E040E050E00E944A30205DE2
:10128000FE01E159FF4F2083F80160817181828165
:10129000938120EA36E841E050E00E944A3020E1A4
:1012A00037E240E050E00E944A3028EE33E040E070
:1012B00050E00E944A3024E630E040E050E00E94D6
:1012C0004A30205DFE01E059FF4F2083F801608124
:1012D00071818281938120EA36E841E050E00E94EA
:1012E0004A3020E137E240E050E00E944A3028EEE8
:1012F00033E040E050E00E944A3024E630E040E035
:1013000050E00E944A302AE030E040E050E00E9485
:101310004A30205DFE01EF58FF4F2083F8016081C5
:1013200071818281938120EA36E841E050E00E9499
:101330004A3020E137E240E050E00E944A3028EE97
:1013400033E040E050E00E944A3024E630E040E0E4
:1013500050E00E944A302AE030E040E050E00E9435
:101360004A30605DFE01EE58FF4F608387010152F5
:101370001A4FF801608171818281938120EA36E8F9
:1013800041E050E00E944A30205DFE01ED58FF4FE1
:101390002083F801608171818281938120EA36E89F
:1013A00041E050E00E944A3020E137E240E050E066
:1013B0000E944A30205DFE01EC58FF4F2083F80167
:1013C000608171818281938120EA36E841E050E0BA
:1013D0000E944A3020E137E240E050E00E944A306B
:1013E00028EE33E040E050E00E944A30205DFE01EC
:1013F000EB58FF4F2083F8016081718182819381D6
:1014000020EA36E841E050E00E944A3020E137E22D
:1014100040E050E00E944A3028EE33E040E050E0E7
:101420000E944A3024E630E040E050E00E944A301A
:10143000205DFE01EA58FF4F2083F8016081718131
:101440008281938120EA36E841E050E00E944A30F0
:1014500020E137E240E050E00E944A3028EE33E0DD
:1014600040E050E00E944A3024E630E040E050E0A6
:101470000E944A302AE030E040E050E00E944A30CA
:10148000205DFE01E958FF4F2083F80160817181E2
:101490008281938120EA36E841E050E00E944A30A0
:1014A00020E137E240E050E00E944A3028EE33E08D
:1014B00040E050E00E944A3024E630E040E050E056
:1014C0000E944A302AE030E040E050E00E944A307A
:1014D000605DFE01E858FF4F608387010D581A4F89
:1014E000F801608171818281938120EA36E841E0D0
:1014F00050E00E944A30205DFE01E758FF4F2083F4
:10150000F801608171818281938120EA36E841E0AF
:1015100050E00E944A3020E137E240E050E00E9473
:101520004A30205DFE01E658FF4F2083F8016081BC
:1015300071818281938120EA36E841E050E00E9487
:101540004A3020E137E240E050E00E944A3028EE85
:1015500033E040E050E00E944A30205DFE01E55853
:10156000FF4F2083F801608171818281938120EA9D
:1015700036E841E050E00E944A3020E137E240E0A6
:1015800050E00E944A3028EE33E040E050E00E94F4
:101590004A3024E630E040E050E00E944A30205DCE
:1015A000FE01E458FF4F2083F80160817181828140
:1015B000938120EA36E841E050E00E944A3020E181
:1015C00037E240E050E00E944A3028EE33E040E04D
:1015D00050E00E944A3024E630E040E050E00E94B3
:1015E0004A302AE030E040E050E00E944A30205D7E
:1015F000FE01E358FF4F2083F801608171818281F1
:10160000938120EA36E841E050E00E944A3020E130
:1016100037E240E050E00E944A3028EE33E040E0FC
:1016200050E00E944A3024E630E040E050E00E9462
:101630004A302AE030E040E050E00E944A30605DED
:10164000FE01E258FF4F6083870105541A4FF801ED
:10165000608171818281938120EA36E841E050E027
:101660000E944A30205DFE01E158FF4F2083F801BF
:10167000608171818281938120EA36E841E050E007
:101680000E944A3020E137E240E050E00E944A30B8
:10169000205DFE01E058FF4F2083F80160817181D9
:1016A0008281938120EA36E841E050E00E944A308E
:1016B00020E137E240E050E00E944A3028EE33E07B
:1016C00040E050E00E944A30205DFE01EF57FF4F9E
:1016D0002083F801608171818281938120EA36E85C
:1016E00041E050E00E944A3020E137E240E050E023
:1016F0000E944A3028EE33E040E050E00E944A3039
:1017000024E630E040E050E00E944A30205DFE01D7
:10171000EE57FF4F2083F8016081718182819381B0
:1017200020EA36E841E050E00E944A3020E137E20A
:1017300040E050E00E944A3028EE33E040E050E0C4
:101740000E944A3024E630E040E050E00E944A30F7
:101750002AE030E040E050E00E944A30205DFE0187
:10176000ED57FF4F2083F801608171818281938161
:1017700020EA36E841E050E00E944A3020E137E2BA
:1017800040E050E00E944A3028EE33E040E050E074
:101790000E944A3024E630E040E050E00E944A30A7
:1017A0002AE030E040E050E00E944A30605DFE01F7
:1017B000EC57FF4F608383E096E0E80EF91EF701D7
:1017C000608171818281938120EA36E841E050E0B6
:1017D0000E944A30205DFE01EB57FF4F2083F70146
:1017E000608171818281938120EA36E841E050E096
:1017F0000E944A3020E137E240E050E00E944A3047
:10180000205DFE01EA57FF4F2083F701608171815F
:101810008281938120EA36E841E050E00E944A301C
:1018200020E137E240E050E00E944A3028EE33E009
:1018300040E050E00E944A30205DFE01E957FF4F32
:101840002083F701608171818281938120EA36E8EB
:1018500041E050E00E944A3020E137E240E050E0B1
:101860000E944A3028EE33E040E050E00E944A30C7
:1018700024E630E040E050E00E944A30205DFE0166
:10188000E857FF4F20838E010C5D1F4FF7016081E9
:1018900071818281938120EA36E841E050E00E9424
:1018A0004A3020E137E240E050E00E944A3028EE22
:1018B00033E040E050E00E944A3024E630E040E06F
:1018C00050E00E944A302AE030E040E050E00E94C0
:1018D0004A30205DF801EB59FF4F2083F70160810A
:1018E00071818281938120EA36E841E050E00E94D4
:1018F0004A3020E137E240E050E00E944A3028EED2
:1019000033E040E050E00E944A3024E630E040E01E
:1019100050E00E944A302AE030E040E050E00E946F
:101920004A30605DC657DF4F68830894C11CD11CE4
:10193000E801F9E0CF16D10409F0A5CB83EB809341
:10194000AB010E94BF03DF91CF911F910F91FF90D8
:10195000EF90DF90CF900895EF92FF920F931F9337
:1019600081E080930C058CE190E0909310058093CA
:101970000F058BE38093650083EA80936600809176
:101980009604805D80936700209160003091610033
:10199000C90164E670E00E943730605D60936800C2
:1019A000C90164E670E00E9437306AE070E00E948E
:1019B0003730605D6093690080916400805D809342
:1019C0006A002091620030916300C90164E670E012
:1019D0000E942330605D60936B00C90164E670E093
:1019E0000E9423309C016AE070E00E942330605D19
:1019F00060936C00C9016AE070E00E942330805D52
:101A000080936D006091790470917A0480917B04D9
:101A100090917C0428EE33E040E050E00E944A3090
:101A2000205D20936E006091790470917A0480911A
:101A30007B0490917C0428EE33E040E050E00E946B
:101A40004A3024E630E040E050E00E944A30205D19
:101A500020936F006091790470917A0480917B04E7
:101A600090917C0428EE33E040E050E00E944A3040
:101A700024E630E040E050E00E944A302AE030E0C6
:101A800040E050E00E944A30205D20937000609159
:101A9000790470917A0480917B0490917C0428EE03
:101AA00033E040E050E00E944A3024E630E040E07D
:101AB00050E00E944A302AE030E040E050E00E94CE
:101AC0004A30605D6093710080917D04805D8093F9
:101AD0007200E0907504F090760400917704109104
:101AE0007804C801B70120E030E048EC52E40E94DD
:101AF0004F2E20E030E040E452E40E94E72D0E94A7
:101B0000B72E60937300C801B7010E94B72EDC01A5
:101B1000CB0164E670E00E9423309C016AE070E033
:101B20000E942330605D60937400C9016AE070E038
:101B30000E942330805D8093750020917104309164
:101B40007204C90164E670E00E942330605D609316
:101B50007600C90164E670E00E9423309C016AE0CF
:101B600070E00E942330605D60937700C9016AE0F5
:101B700070E00E942330805D809378002091730490
:101B800030917404C90164E670E00E942330605D06
:101B900060937900C90164E670E00E9423309C01E3
:101BA0006AE070E00E942330605D60937A00C901B2
:101BB0006AE070E00E942330805D80937B0060913A
:101BC000920470919304809194049091950420EA7A
:101BD00036E841E050E00E944A30205D20937C00CE
:101BE0006091920470919304809194049091950473
:101BF00020E137E240E050E00E944A30CA01B901DA
:101C00002AE030E040E050E00E944A30605D60939E
:101C10007D0060918E0470918F048091900490916A
:101C2000910420EA36E841E050E00E944A30205D0D
:101C300020937E0060918E0470918F0480919004B7
:101C40009091910420E137E240E050E00E944A3058
:101C5000CA01B9012AE030E040E050E00E944A3079
:101C6000605D60937F0083EB809380000E94BF03E0
:101C70001F910F91FF90EF900895CF92DF92EF9216
:101C8000FF920F931F93CF93DF938091FA048130DB
:101C900021F0823009F07AC063C0009120051091D4
:101CA0002105E090FE04F090FF04C090FC04D09069
:101CB000FD04C0E0D0E08091220590912305F80159
:101CC000E81BF90BF7FF03C0F095E195FF4FC70143
:101CD0008C199D0962E070E00E943730CB0177FFDC
:101CE00003C0909581959F4FE817F90714F0C1E064
:101CF000D0E08091010590E0C82BD92B909126056A
:101D0000CD2B51F081E08093000584E3809303059F
:101D10009F5F9093260506C09E3120F41092000527
:101D20001092260580910005882381F5E016F106C2
:101D30001CF081E08093FB040C151D0514F010923B
:101D4000FB048091FB04882329F0AB9A83E3809302
:101D5000030501C0AB98109323050093220516C01C
:101D60008091F704813011F482E308C0882341F4A4
:101D700080913C06882321F4AB9880E3809303058F
:101D80001092FA041092260510920005DF91CF916F
:101D90001F910F91FF90EF90DF90CF900895EF92F9
:101DA000FF920F931F93CF93DF938AE090E00E94FE
:101DB0008F306093650470936604809367049093FA
:101DC00068048EE090E00E948F3060936904709305
:101DD0006A0480936B0490936C0482E190E00E940B
:101DE0008F3060936D0470936E0480936F049093B2
:101DF000700486E190E00E9487308093F00487E1D0
:101E000090E00E9487308093F10488E190E00E9486
:101E100087308093F20489E190E00E9487308093BC
:101E2000F3048AE190E00E9487308093F4048BE110
:101E300090E00E9487308093F5048CE190E00E944E
:101E400087308093F6048DE190E00E948730809384
:101E5000F7048EE190E00E94873080934A058FE17D
:101E600090E00E94873080934B0580E290E00E94D2
:101E7000873080934C0581E290E00E948730809308
:101E80004D0582E290E00E94873090E0A0E0B0E053
:101E9000BC01CD010E94E32E60933A0570933B058F
:101EA00080933C0590933D0583E290E00E9487304B
:101EB00090E0A0E0B0E0BC01CD010E94E32E609371
:101EC0003E0570933F05809340059093410584E261
:101ED00090E00E94873090E0A0E0B0E0BC01CD012E
:101EE0000E94E32E6093420570934305809344055E
:101EF0009093450585E290E00E94873090E0A0E055
:101F0000B0E0BC01CD010E94E32E609346057093C2
:101F10004705809348059093490586E290E00E942A
:101F2000873090E0A0E0B0E0BC01CD010E94E32E3C
:101F3000609375047093760480937704909378048B
:101F400087E290E00E94873080933F0688E290E02D
:101F50000E9487308CBF89E290E00E948F306093AE
:101F600082047093830480938404909385048DE2AB
:101F700090E00E948F3060937E0470937F04809382
:101F800080049093810481E390E00E948F306093FD
:101F90008A0470938B0480938C0490938D0485E362
:101FA00090E00E948F306093860470938704809342
:101FB00088049093890489E390E00E94873080939D
:101FC000E8048AE390E00E948730809396048BE3D4
:101FD00090E00E94953090936100809360008DE3C3
:101FE00090E00E948730809364008EE390E00E942E
:101FF0009530909363008093620080E490E00E94AB
:1020000087308093ED0481E490E00E9487308093D4
:10201000EC04EE24FF24C2E4D0E0CE010E948F3015
:102020008701000F111F000F111FF801E15BFA4F2C
:102030006083718382839383CE0184960E948F3064
:10204000F801E956FA4F6083718382839383CE014E
:10205000885B9F4F0E948F30F801E152FA4F6083F6
:10206000718382839383CE0184599F4F0E948F3066
:10207000F801ED58FA4F6083718382839383CE0118
:1020800080579F4F0E948F30F801E554FA4F6083CC
:10209000718382839383CE018C549F4F0E948F3033
:1020A0000D5F194FF80160837183828393830894D5
:1020B000E11CF11C2496F9E0EF16F10409F0ADCF14
:1020C0008AE191E00E9487308093E9048BE191E0FE
:1020D0000E948F306093790470937A0480937B041C
:1020E00090937C048FE191E00E94873080937D047F
:1020F00080E291E00E9487308093EE0481E291E0DB
:102100000E949530909372048093710483E291E071
:102110000E949530909374048093730485E291E05B
:102120000E948F3060939204709393048093940480
:102130009093950489E291E00E948F3060938E0421
:1021400070938F0480939004909391048DE291E0BA
:102150000E94873080933A068EE291E00E94873099
:1021600080933B068FE291E00E9487308093EF04DA
:1021700080E391E00E9495309093210580932005A3
:1021800082E391E00E9495309093FD048093FC04DB
:1021900084E391E00E9495309093FF048093FE04C5
:1021A00086E391E00E9487308093030587E391E006
:1021B0000E9487308093040588E391E00E94873075
:1021C0008093FA0489E391E00E948730809340066F
:1021D000DF91CF911F910F91FF90EF900895809123
:1021E00042068F5F80934206873009F42EC2883002
:1021F00090F4833009F40DC1843030F4813009F15A
:10220000823009F058C46AC0853009F490C1863024
:1022100008F0D4C145C18B3009F433C38C3038F495
:10222000893009F4A0C28A3008F0E4C255C28D306A
:1022300009F4B7C38D3008F46BC38E3009F03BC48A
:10224000FCC388EE93E06DE170E00E94B0304091F5
:1022500065045091660460916704709168048AE097
:1022600090E00E94A8304091690450916A04609106
:102270006B0470916C048EE090E00E94A830409155
:102280006D0450916E0460916F047091700482E14E
:1022900090E00E94A83086E190E06091F0040E94F6
:1022A0009B3087E190E06091F1040E949B3088E1CF
:1022B00090E06091F2040E949B3089E190E060918F
:1022C000F3040E949B308AE190E06091F4040E9444
:1022D0009B308BE190E06091F504DFC08CE190E0F1
:1022E0006091F6040E949B308DE190E06091F704CC
:1022F0000E949B308EE190E060914A050E949B30E5
:102300008FE190E060914B050E949B3080E290E06D
:1023100060914C050E949B3081E290E060914D05F8
:102320000E949B3060913A0570913B0580913C057D
:1023300090913D050E94B72E9B01AC0182E290E096
:10234000622F0E949B3060913E0570913F05809105
:102350004005909141050E94B72E9B01AC0183E29C
:1023600090E0622F0E949B3060914205709143057E
:1023700080914405909145050E94B72E9B01AC01C8
:1023800084E290E0622F0E949B306091460570913C
:10239000470580914805909149050E94B72E9B0101
:1023A000AC0185E290E0622F0E949B306091750441
:1023B0007091760480917704909178040E94B72EF2
:1023C0009B01AC0186E290E0622F0E949B3087E285
:1023D00090E060913F060E949B306CB788E290E0ED
:1023E0000E949B3040918204509183046091840448
:1023F0007091850489E290E00E94A83040917E04AB
:1024000050917F0460918004709181048DE290E08E
:10241000C5C240918A0450918B0460918C047091E4
:102420008D0481E390E00E94A83040918604509191
:102430008704609188047091890485E390E00E948C
:10244000A83089E390E06091E8040E949B308AE321
:1024500090E0609196040E949B30609160007091C2
:1024600061008BE390E00E94B0308DE390E06091DA
:1024700064000E949B3060916200709163008EE363
:1024800090E00E94B03080E490E06091ED040E9402
:102490009B3081E490E06091EC040E949B300895B1
:1024A00040914F0550915005609151057091520532
:1024B00082E490E00E94A8304091970550919805E1
:1024C0006091990570919A0586E690E00E94A83087
:1024D0004091DF055091E0056091E1057091E205C2
:1024E0008AE890E00E94A8304091730550917405ED
:1024F00060917505709176058EEA90E00E94A83093
:102500004091BB055091BC056091BD057091BE0521
:1025100082ED90E00E94A83040910306509104069D
:10252000609105067091060686EF90E037C24091F3
:10253000530550915405609155057091560586E4F8
:1025400090E00E94A83040919B0550919C056091BD
:102550009D0570919E058AE690E00E94A83040910A
:10256000E3055091E4056091E5057091E6058EE87C
:1025700090E00E94A83040917705509178056091D5
:10258000790570917A0582EB90E00E94A830409125
:10259000BF055091C0056091C1057091C20586EDDF
:1025A00090E00E94A8304091070650910806609183
:1025B000090670910A068AEF90E0F0C14091570534
:1025C000509158056091590570915A058AE490E040
:1025D0000E94A83040919F055091A0056091A105EF
:1025E0007091A2058EE690E00E94A8304091E70528
:1025F0005091E8056091E9057091EA0582E990E063
:102600000E94A83040917B0550917C0560917D052A
:1026100070917E0586EB90E00E94A8304091C30542
:102620005091C4056091C5057091C6058AED90E092
:102630000E94A83040910B0650910C0660910D0647
:1026400070910E068EEF90E0A9C140915B0550910C
:102650005C0560915D0570915E058EE490E00E94DE
:10266000A8304091A3055091A4056091A5057091F3
:10267000A60582E790E00E94A8304091EB055091BA
:10268000EC056091ED057091EE0586E990E00E9401
:10269000A83040917F05509180056091810570912F
:1026A00082058AEB90E00E94A8304091C7055091C6
:1026B000C8056091C9057091CA058EED90E00E9431
:1026C000A83040910F06509110066091110670914C
:1026D000120682E091E062C140915F055091600571
:1026E000609161057091620582E590E00E94A830DA
:1026F0004091A7055091A8056091A9057091AA0580
:1027000086E790E00E94A8304091EF055091F005D7
:102710006091F1057091F2058AE990E00E94A8307D
:1027200040918305509184056091850570918605DF
:102730008EEB90E00E94A8304091CB055091CC05E3
:102740006091CD057091CE0582EE90E00E94A83098
:10275000409113065091140660911506709116066B
:1027600086E091E01BC14091630550916405609142
:1027700065057091660586E590E00E94A83040915D
:10278000AB055091AC056091AD057091AE058AE73F
:1027900090E00E94A8304091F3055091F4056091BB
:1027A000F5057091F6058EE990E00E94A830409101
:1027B0008705509188056091890570918A0582ECA2
:1027C00090E00E94A8304091CF055091D0056091D3
:1027D000D1057091D20586EE90E00E94A83040911C
:1027E0001706509118066091190670911A068AE032
:1027F00091E0D4C0409167055091680560916905EA
:1028000070916A058AE590E00E94A8304091AF057A
:102810005091B0056091B1057091B2058EE790E0DE
:102820000E94A8304091F7055091F8056091F90594
:102830007091FA0582EA90E00E94A83040918B05E1
:1028400050918C0560918D0570918E0586EC90E01D
:102850000E94A8304091D3055091D4056091D505D0
:102860007091D6058AEE90E00E94A83040911B0638
:1028700050911C0660911D0670911E068EE091E03D
:102880008DC040916B0550916C0560916D05709104
:102890006E058EE590E00E94A8304091B3055091FE
:1028A000B4056091B5057091B60582E890E00E948C
:1028B000A8304091FB055091FC056091FD05709199
:1028C000FE0586EA90E00E94A83040918F05509165
:1028D000900560919105709192058AEC90E00E94BC
:1028E000A8304091D7055091D8056091D9057091D5
:1028F000DA058EEE90E00E94A83040911F065091BC
:102900002006609121067091220682E191E046C086
:1029100040916F055091700560917105709172053D
:1029200082E690E00E94A8304091B7055091B8052A
:102930006091B9057091BA0586E890E00E94A830D0
:102940004091FF05509100066091010670910206CA
:102950008AEA90E00E94A830409193055091940536
:1029600060919505709196058EEC90E00E94A830DC
:102970004091DB055091DC056091DD057091DE052D
:1029800082EF90E00E94A8304091230650912406E7
:10299000609125067091260686E191E00E94A8309C
:1029A00008958AE191E06091E9040E949B30409192
:1029B000790450917A0460917B0470917C048BE1DE
:1029C00091E00E94A83060917D048FE191E00E9427
:1029D0009B3080E291E06091EE040E949B30609118
:1029E00071047091720481E291E00E94B0306091B4
:1029F00073047091740483E291E00E94B0304091BE
:102A0000920450919304609194047091950485E22E
:102A100091E00E94A83040918E0450918F04609103
:102A200090047091910489E291E00E94A8308DE2B7
:102A300091E060913A060E949B308EE291E06091B5
:102A40003B060E949B308FE291E06091EF040E9470
:102A50009B30609120057091210580E391E00E94F8
:102A6000B0306091FC047091FD0482E391E00E941B
:102A7000B0306091FE047091FF0484E391E00E9405
:102A8000B03086E391E0609103050E949B3087E3BC
:102A900091E0609104050E949B3088E391E0609191
:102AA000FA040E949B3089E391E0609140060E9405
:102AB0009B301092430608952F923F924F925F925F
:102AC0006F927F928F929F92AF92BF92CF92DF923E
:102AD000EF92FF920F931F93DF93CF93CDB7DEB7A3
:102AE0006B970FB6F894DEBF0FBECDBF1B821A8264
:102AF0001D821C821982F8948AB3806F8ABB84B3CA
:102B0000806C84BB8AB3887F8ABB80E487B983EA00
:102B100086B9369A81B3806F81BB84B38F6084BBE2
:102B200082B38F7082BB85B3807F85BBA59AA49A40
:102B3000AD9AAC98D39ADB98DB9A84E191E0019747
:102B4000F1F7DB98BB9A88EE93E024E131E0F901DC
:102B50003197F1F70197D9F70E948A0480E489BF81
:102B600082E085BD8AE683BF1CBE12BE8FE184BDB4
:102B700078940E946D030E940B031092130588EE57
:102B800093E00E9495304D9711F40E94CF0E8091F2
:102B90004A05882321F081E08093050502C0109248
:102BA000050510924B0510924C0510924D05809131
:102BB00011059091120587FF33C080913D068F5F0C
:102BC00080933D06823079F0833018F48130F9F437
:102BD00005C0833079F08430D1F411C081E060E029
:102BE00047E954E004C082E060E04BEA54E00E9410
:102BF000D5040DC083E060E04FEB54E0F8CF84E0F3
:102C000060E043ED54E00E94D50410923D068091AF
:102C10001105909112058F779093120580931105FD
:102C2000809111059091120591FF9CC2809113052E
:102C3000882319F08130B9F516C081E062E644E0DE
:102C40000E9425028E8381E062E642E00E94250216
:102C50008A8781E062E641E00E9425028E8781E05A
:102C60008093130520C080914E058F5F80934E05A1
:102C70008431C9F4CE01089662E644E00E94D00196
:102C80008F83CE010C9662E642E00E94D0018B87D2
:102C9000CE01409662E641E00E94D0018F871092FB
:102CA000130510924E058F818823D9F51B821A8255
:102CB0001D821C8220E2298388859985BE016E5F72
:102CC0007F4FAE014C5F5F4F9E012F5F3F4F0E94D1
:102CD00039052A813B81C9016AE070E00E942330F6
:102CE000CB016AE070E00E942330805D8093B004E5
:102CF000C9016AE070E00E942330805D8093B104D6
:102D00003EE23093B2048C819D8168EE73E00E94B4
:102D10002330CB016AE070E00E942330805D809315
:102D2000B3048B858823D9F51B821A821D821C82ED
:102D300040E249838C859D85BE016E5F7F4FAE0169
:102D40004C5F5F4F9E012F5F3F4F0E9439052A81E4
:102D50003B81C9016AE070E00E942330CB016AE048
:102D600070E00E942330805D8093C404C9016AE052
:102D700070E00E942330805D8093C5045EE2509332
:102D8000C6048C819D8168EE73E00E942330CB01E4
:102D90006AE070E00E942330805D8093C7048F85D5
:102DA0008823D9F51B821A821D821C8280E28983C6
:102DB00088899989BE016E5F7F4FAE014C5F5F4F7E
:102DC0009E012F5F3F4F0E9439052A813B81C90137
:102DD0006AE070E00E942330CB016AE070E00E945C
:102DE0002330805D8093D804C9016AE070E00E94BE
:102DF0002330805D8093D9049EE29093DA048C8125
:102E00009D8168EE73E00E942330CB016AE070E0A0
:102E10000E942330805D8093DB040E942003409158
:102E20005206842F82958F7090E09C0113E0220F50
:102E3000331F1A95E1F7880F991F280F391F4F701C
:102E4000240F311DC9016AE070E00E943730605DD7
:102E500060939704C9016AE070E00E943730805D9A
:102E600080939804AAE3A093990440915106842F7B
:102E700082958F7090E09C01A3E0220F331FAA95EA
:102E8000E1F7880F991F280F391F4F70240F311D4C
:102E9000C9016AE070E00E943730605D60939A0477
:102EA000C9016AE070E00E943730805D80939B0426
:102EB000BAE3B0939C0440915006842F82958F70A2
:102EC00090E09C01E3E0220F331FEA95E1F7880FC1
:102ED000991F280F391F4F70240F311DC9016AE057
:102EE00070E00E943730605D60939D04C9016AE024
:102EF00070E00E943730805D80939E0420913905F8
:102F00002F5F2093390594B190934C0685B180933F
:102F100048068B8F1A8EEA8DFB8DE90FF11DAF01EC
:102F2000662757FD6095762F40931405509315053D
:102F30006093160570931705213059F440931805D6
:102F40005093190560931A0570931B05F1E4F7B9C6
:102F5000369A80913905823099F4809114059091C8
:102F60001505A0911605B091170580931C05909347
:102F70001D05A0931E05B0931F0522E427B9369ABC
:102F800080913905833069F480911405909115057D
:102F9000909321058093200530E437B9369A10923A
:102FA0003905609165047091660480916704909181
:102FB0006804209118053091190540911A05509127
:102FC0001B050E94F82F9B01AC0160916904709170
:102FD0006A0480916B0490916C04620F731F841FCC
:102FE000951F28EE33E040E050E00E944A30CA01CD
:102FF0002093300630933106409332069093330687
:10300000B90128EE33E040E050E00E944A30205DF4
:103010002093BA0460913006709131068091320697
:103020009091330628EE33E040E050E00E944A30B1
:103030007B018C0124E630E040E050E00E944A3001
:10304000205D2093BB044EE24093BC04C801B7014D
:1030500024E630E040E050E00E944A307B018C01E1
:103060002AE030E040E050E00E944A30205D2093AA
:10307000BD04C801B7012AE030E040E050E00E9402
:103080004A30605D6093BE0460916D0470916E047F
:1030900080916F049091700420911C0530911D0562
:1030A00040911E0550911F050E94F82F28EE33E035
:1030B00040E050E00E944A30CA0120933406309329
:1030C00035064093360690933706B90128EE33E073
:1030D00040E050E00E944A30205D2093CE045EE242
:1030E0005093CF0460913406709135068091360676
:1030F0009091370628EE33E040E050E00E944A30DD
:103100007B018C0124E630E040E050E00E944A3030
:10311000205D2093D004C801B70124E630E040E0F0
:1031200050E00E944A307B018C012AE030E040E010
:1031300050E00E944A30205D2093D104C801B701BD
:103140002AE030E040E050E00E944A30605D609349
:10315000D20480911105909112059D7F90931205E4
:1031600080931105809111059091120592FD02C086
:103170000C94DD2A809165028B3309F036C780916B
:10318000660290E0FC013197E931F10508F02DC7A6
:10319000E65DFF4FEE0FFF1F0590F491E02D0994BF
:1031A00080917B02833B09F061C08091670281338B
:1031B00021F481E08093F00402C01092F004809129
:1031C0006802813321F481E08093F10402C01092FF
:1031D000F10480916902813321F481E08093F2044B
:1031E00002C01092F20480916A02813321F481E0DE
:1031F0008093F30402C01092F30480916B02813338
:1032000021F481E08093F40402C01092F4048091D0
:103210006C02813339F481E08093F50482E380937A
:10322000400604C01092F5041092400680916D0291
:10323000813339F481E08093F60482E380930405BE
:1032400004C01092F6041092040580916E0281333E
:1032500039F481E08093F70482E38093030504C08E
:103260001092F7041092030510927B0280916F0276
:10327000813309F072C080914A058F5F80934A05BF
:103280008A3009F04FC06091700220917102509114
:10329000720244E6649FB0011124289F900111241A
:1032A000620F731F650F711D882777FD8095982F1A
:1032B0000E94E52E23E333E343E250E40E94952F7E
:1032C00060933A0570933B0580933C0590933D05D0
:1032D00029E020934A0560907504709076048090F0
:1032E000770490907804A40193010E944B2E8823C8
:1032F00044F460923A0570923B0580923C059092AE
:103300003D0580913A0590913B05A0913C05B09117
:103310003D058093420590934305A0934405B093E7
:1033200045050CC080E090E0AFE7B3E480933A0538
:1033300090933B05A0933C05B0933D0560913A0501
:1033400070913B0580913C0590913D050E94B72E00
:103350006CBF82E380933F0607C01CBE10924A05F3
:1033600010923F061092050560917302109174024D
:1033700070E080E090E02AE030E040E050E00E9421
:10338000F82F610F711D811D911D20E137E240E092
:1033900050E00E94F82F6050714980459040609342
:1033A00082047093830480938404909385046091D5
:1033B00075021091760270E080E090E02AE030E043
:1033C00040E050E00E94F82F610F711D811D911D9A
:1033D00020E137E240E050E00E94F82F6050714950
:1033E0008045904060937E0470937F0480938004B6
:1033F00090938104609177021091780270E080E0F0
:1034000090E02AE030E040E050E00E94F82F610FA9
:10341000711D811D911D20E137E240E050E00E94C6
:10342000F82F605071498045904060938A047093F2
:103430008B0480938C0490938D0460917902109199
:103440007A0270E080E090E02AE030E040E050E076
:103450000E94F82F610F711D811D911D20E137E23F
:1034600040E050E00E94F82F605071498045904044
:1034700060938604709387048093880490938904F2
:10348000B4C5809167022091680220513AE0839F81
:10349000C0011124280F20934D06809169022091CC
:1034A0006A022051839FC0011124280F20934E06E9
:1034B00080916B0220916C022051839FC0011124E6
:1034C000280F20934F060E94540380916D02833B86
:1034D00009F08BC510926D0286C51092420681E0FC
:1034E000809343063DC481E08093E80480916702A5
:1034F0008053809396048091680220916902E4E6EB
:103500008E9FC0011124FAE02F9F90011124820F99
:10351000931F805A94419093610080936000809142
:103520006A0280538093640020916B0240916C0288
:1035300060916D0270E0605D74412E9F90011124D6
:10354000620F731F4F9FA0011124640F751F8827FE
:1035500077FD8095982F0E94E52E23E333E343E225
:1035600050E40E94952F0E94B72E709363006093E1
:10357000620080916E02833B09F037C510926E02A3
:1035800032C582E08093E8041092ED041092EC04BE
:1035900010924B05E5C381E08093E904E090670257
:1035A000D09068026091690280916A02682E772447
:1035B0008824992480EB9FE2AFEFBFEF680E791E5D
:1035C0008A1E9B1E70E080E090E02AE030E040E040
:1035D00050E00E94F82F660E771E881E991EFF2469
:1035E00000E010E0C801B7010E94F82F6D0D711DB9
:1035F000811D911D24E630E040E050E00E94F82F4C
:10360000660E771E881E991E6092790470927A0465
:1036100080927B0490927C0480916B028053809313
:103620007D0420916C02E0916D0260916E0270E069
:10363000605D744144E6249F90011124620F731F62
:103640002AE0E29FF00111246E0F7F1F882777FD8B
:103650008095982F0E94E52E23E333E343E250E464
:103660000E94952F6093750470937604809377047D
:103670009093780480916F02833B09F0B6C4109256
:103680006F02B1C482E08093E90410924D0568C3D3
:1036900081E08093EE04209167024091680280915E
:1036A000690290E0805D944174E6279F90011124A7
:1036B000820F931F6AE0469FA0011124840F951F7B
:1036C000909372048093710420916A0240916B027E
:1036D00080916C0290E0805D9441279F90011124BD
:1036E000820F931F469FA0011124840F951F909372
:1036F00074048093730460916D0210916E0270E007
:1037000080E090E02AE030E040E050E00E94F82FB6
:10371000610F711D811D911D20E137E240E050E0F5
:103720000E94F82F60507149804590406093920448
:1037300070939304809394049093950460916F0226
:103740001091700270E080E090E02AE030E040E00C
:1037500050E00E94F82F610F711D811D911D20E125
:1037600037E240E050E00E94F82F605071498045F8
:10377000904060938E0470938F0480939004909394
:10378000910480917102833B09F02FC41092710261
:103790002AC41092EE0480913B06882309F0E0C20F
:1037A000AA98DEC281E08093FA048091200590916E
:1037B0002105909323058093220510920105D0C224
:1037C0001092FB0482E08093FA04CAC28091200523
:1037D000909121059093FD048093FC04C1C28091D7
:1037E0002005909121059093FF048093FE04B8C2B8
:1037F0000E94AC0CB5C21D8A1C8A1B8A1A8AEA89EF
:10380000FB89E959FD4FE080EA89FB89E859FD4FC2
:103810009080EA89FB89E759FD4FA080EA89FB89FE
:10382000E659FD4F8080EA89FB89E559FD4F6081AB
:10383000EA89FB89E459FD4FE0814E2E5524662428
:10384000772420EB3EE94EEA5FEF420E531E641EE2
:10385000751E70E080E090E02AE030E040E050E04B
:103860000E94F82F460E571E681E791EFF2400E0A6
:1038700010E0C801B7010E94F82F690D711D811D6C
:10388000911D20E137E240E050E00E94F82F460E03
:10389000571E681E791EBB24CC24DD24C601B50149
:1038A0002AE030E040E050E00E94F82F680D711DE2
:1038B000811D911D24E630E040E050E00E94F82F89
:1038C000460E571E681E791E8C889D88880C991C90
:1038D000880C991CF401E15BFA4F408251826282AC
:1038E0007382EA89FB89E359FD4FE080EA89FB890D
:1038F000E259FD4F7080EA89FB89E159FD4FA080B4
:10390000EA89FB89E059FD4F6080EA89FB89EF581D
:10391000FD4F6081EA89FB89EE58FD4FE0812E2E34
:1039200033244424552480EB9EE9AEEABFEF280EF1
:10393000391E4A1E5B1E70E080E090E02AE030E015
:1039400040E050E00E94F82F260E371E481E591EF8
:10395000FF2400E010E0C801B7010E94F82F670DB6
:10396000711D811D911D20E137E240E050E00E9471
:10397000F82F260E371E481E591EBB24CC24DD24EA
:10398000C601B5012AE030E040E050E00E94F82F87
:10399000660D711D811D911D24E630E040E050E070
:1039A0000E94F82F260E371E481E591EF401ED58AE
:1039B000FA4F2082318242825382EA89FB89ED5894
:1039C000FD4FE080EA89FB89EC58FD4F7080EA8961
:1039D000FB89EB58FD4FA080EA89FB89EA58FD4F2F
:1039E0006080EA89FB89E958FD4F6081EA89FB899B
:1039F000E858FD4FE0812E2E33244424552420EB3B
:103A00003EE94EEA5FEF220E331E441E551E70E063
:103A100080E090E02AE030E040E050E00E94F82FA3
:103A2000260E371E481E591EFF2400E010E0C80174
:103A3000B7010E94F82F670D711D811D911D20E1B6
:103A400037E240E050E00E94F82F260E371E481E55
:103A5000591EBB24CC24DD24C601B5012AE030E088
:103A600040E050E00E94F82F660D711D811D911DF0
:103A700024E630E040E050E00E94F82F260E371E8A
:103A8000481E591EF401E956FA4F208231824282C3
:103A90005382EA89FB89E758FD4FE080EA89FB8978
:103AA000E658FD4F7080EA89FB89E558FD4FA080FC
:103AB000EA89FB89E458FD4F6080EA89FB89E35875
:103AC000FD4F6081EA89FB89E258FD4FE0812E2E8F
:103AD00033244424552480EB9EE9AEEABFEF280E40
:103AE000391E4A1E5B1E70E080E090E02AE030E064
:103AF00040E050E00E94F82F260E371E481E591E47
:103B0000FF2400E010E0C801B7010E94F82F670D04
:103B1000711D811D911D20E137E240E050E00E94BF
:103B2000F82F260E371E481E591EBB24CC24DD2438
:103B3000C601B5012AE030E040E050E00E94F82FD5
:103B4000660D711D811D911D24E630E040E050E0BE
:103B50000E94F82F260E371E481E591EF401E55408
:103B6000FA4F2082318242825382EA89FB89E158EE
:103B7000FD4FE080EA89FB89E058FD4F7080EA89BB
:103B8000FB89EF57FD4FA080EA89FB89EE57FD4F77
:103B90006080EA89FB89ED57FD4F6081EA89FB89E6
:103BA000EC57FD4FE0812E2E33244424552420EB86
:103BB0003EE94EEA5FEF220E331E441E551E70E0B2
:103BC00080E090E02AE030E040E050E00E94F82FF2
:103BD000260E371E481E591EFF2400E010E0C801C3
:103BE000B7010E94F82F670D711D811D911D20E105
:103BF00037E240E050E00E94F82F260E371E481EA4
:103C0000591EBB24CC24DD24C601B5012AE030E0D6
:103C100040E050E00E94F82F660D711D811D911D3E
:103C200024E630E040E050E00E94F82F260E371ED8
:103C3000481E591EF401E152FA4F2082318242821D
:103C40005382EA89FB89EB57FD4FE080EA89FB89C3
:103C5000EA57FD4F7080EA89FB89E957FD4FA08044
:103C6000EA89FB89E857FD4F60804C895D894F5F89
:103C70005F4F598F488F8A899B8984969F8B8E8B43
:103C8000FC01EB59FD4F6081AA89BB89A657BD4F46
:103C9000EC912E2E33244424552420EB3EE94EEAA9
:103CA0005FEF220E331E441E551E70E080E090E050
:103CB0002AE030E040E050E00E94F82F260E371E48
:103CC000481E591EFF2400E010E0C801B7010E9401
:103CD000F82F670D711D811D911D20E137E240E035
:103CE00050E00E94F82F260E371E481E591EBB2496
:103CF000CC24DD24C601B5012AE030E040E050E0EC
:103D00000E94F82F660D711D811D911D24E630E083
:103D100040E050E00E94F82F260E371E481E591E24
:103D200043E056E0840E951ED4012D923D924D92B3
:103D30005C921397E88DF98DE930F10539F0FD8B30
:103D4000EC8B2E893F893B8B2A8B59CD8091AB031D
:103D5000833B09F04AC11092AB0345C10E9423087E
:103D600080916702833B09F040C1109267023BC11A
:103D70008091180590911905909328058093270547
:103D800060916702E0906802A090690280916A02E7
:103D9000682E77248824992480EB9FE2AFEFBFEF51
:103DA000680E791E8A1E9B1E70E080E090E028EE6F
:103DB00033E040E050E00E94F82F660E771E881E28
:103DC000991EFF2400E010E0C801B70124E630E0AE
:103DD00040E050E00E94F82F660E771E881E991E64
:103DE000BB24CC24DD24C601B5012AE030E040E04C
:103DF00050E00E94F82F660E771E881E991E609272
:103E00002D0570922E0580922F05909230056091BD
:103E10006B02E0906C02A0906D0280916E02682EA1
:103E200077248824992420EB3FE24FEF5FEF620E66
:103E3000731E841E951E70E080E090E028EE33E053
:103E400040E050E00E94F82F660E771E881E991EF3
:103E5000FF2400E010E0C801B70124E630E040E0B4
:103E600050E00E94F82F660E771E881E991EBB2414
:103E7000CC24DD24C601B5012AE030E040E050E06A
:103E80000E94F82F660E771E881E991E60923105DB
:103E90007092320580923305909234059EC0E09076
:103EA0001805F0901905F0922A05E0922905609016
:103EB0002D0570902E0580902F05909030058091F3
:103EC000310590913205A0913305B0913405A401DC
:103ED0009301281B390B4A0B5B0BCA01B90128EE71
:103EE00033E040E050E00E94F82FA0902705B0900A
:103EF0002805CC24DD2400E010E0A60195012E1950
:103F00003F09400B510B0E946C30522E432E342E31
:103F1000252E2093650430936604409367045093E4
:103F20006804C401B30128EE33E040E050E00E9491
:103F3000F82F7B018C01652D742D832D922DA60108
:103F400095010E94F82FE61AF70A080B190BE09268
:103F50006904F0926A0400936B0410936C043DC0F2
:103F6000E0901C05F0901D05F0922C05E0922B05C9
:103F700020916F02E09170026091710270E0605DCB
:103F8000744144E6249F90011124620F731F2AE0BC
:103F9000E29FF00111246E0F7F1F882777FD809527
:103FA000982F60933505709336058093370590936D
:103FB000380528EE33E040E050E00E94F82F00E0A2
:103FC00010E0A80197010E944A3020936D043093BD
:103FD0006E0440936F045093700480917202833B8F
:103FE00021F4109272021092660260919A0470E0BD
:103FF00080E090E02AE030E040E050E00E94F82FBE
:1040000020919B04620F711D811D911D24E630E0FB
:1040100040E050E00E94F82F5B016C0160919D042C
:1040200070E080E090E02AE030E040E050E00E9464
:10403000F82F7B018C0180919E04E80EF11C011D7C
:10404000111D80EB9EE9AEEABFEFE80EF91E0A1FD4
:104050001B1F6091970470E080E090E00E94F82FB1
:1040600020919804620F711D811D911D20E137E29E
:1040700040E050E00E94F82F6E0D7F1D801F911FC1
:104080006A0D7B1D8C1D9D1D60932C0670932D0663
:1040900080932E0690932F0620E031E940E550E012
:1040A000E20EF31E041F151FEA0CFB1C0C1D1D1D48
:1040B000E0922706F09228060093290610932A061C
:1040C000AC988091F9048F5F8093F904833009F0F4
:1040D00076C620912C0630912D0640912E065091E7
:1040E0002F0680914F0590915005A0915105B091F8
:1040F0005205281739074A075B0758F120912C060B
:1041000030912D0640912E0650912F068091730517
:1041100090917405A0917505B0917605281739071F
:104120004A075B07B0F420914F053091500540914C
:104130005105509152058091730590917405A0919D
:104140007505B0917605281739074A075B0709F00E
:1041500083C020912C0630912D0640912E0650915F
:104160002F068091970590919805A0919905B0919F
:104170009A05281739074A075B0758F120912C0642
:1041800030912D0640912E0650912F068091BB054F
:104190009091BC05A091BD05B091BE0528173907C7
:1041A0004A075B07B0F4209197053091980540913C
:1041B000990550919A058091BB059091BC05A091FD
:1041C000BD05B091BE05281739074A075B0709F0FE
:1041D00043C020912C0630912D0640912E0650911F
:1041E0002F068091DF059091E005A091E105B09147
:1041F000E205281739074A075B0750F120912C0682
:1042000030912D0640912E0650912F068091030685
:1042100090910406A0910506B0910606281739076B
:104220004A075B07A8F42091DF053091E005409133
:10423000E1055091E2058091030690910406A0915A
:104240000506B0910606281739074A075B0721F4CF
:104250008091F004813011F4949A03C094981092E4
:10426000F00420912C0630912D0640912E0650919D
:104270002F068091530590915405A0915505B0915A
:104280005605281739074A075B0758F120912C0675
:1042900030912D0640912E0650912F068091770582
:1042A00090917805A0917905B0917A052817390782
:1042B0004A075B07B0F420915305309154054091B3
:1042C0005505509156058091770590917805A091FC
:1042D0007905B0917A05281739074A075B0709F075
:1042E00083C020912C0630912D0640912E065091CE
:1042F0002F0680919B0590919C05A0919D05B09102
:104300009E05281739074A075B0758F120912C06AC
:1043100030912D0640912E0650912F068091BF05B9
:104320009091C005A091C105B091C2052817390729
:104330004A075B07B0F420919B0530919C054091A2
:104340009D0550919E058091BF059091C005A0915B
:10435000C105B091C205281739074A075B0709F064
:1043600043C020912C0630912D0640912E0650918D
:104370002F068091E3059091E405A091E505B091A9
:10438000E605281739074A075B0750F120912C06EC
:1043900030912D0640912E0650912F0680910706F0
:1043A00090910806A0910906B0910A0628173907CE
:1043B0004A075B07A8F42091E3053091E40540919A
:1043C000E5055091E6058091070690910806A091B9
:1043D0000906B0910A06281739074A075B0721F436
:1043E0008091F104813011F4959A03C09598109250
:1043F000F10420912C0630912D0640912E0650910B
:104400002F068091570590915805A0915905B091BC
:104410005A05281739074A075B0758F120912C06DF
:1044200030912D0640912E0650912F0680917B05EC
:1044300090917C05A0917D05B0917E0528173907E4
:104440004A075B07B0F42091570530915805409119
:10445000590550915A0580917B0590917C05A0915A
:104460007D05B0917E05281739074A075B0709F0DB
:1044700083C020912C0630912D0640912E0650913C
:104480002F0680919F059091A005A091A105B09164
:10449000A205281739074A075B0758F120912C0617
:1044A00030912D0640912E0650912F068091C30524
:1044B0009091C405A091C505B091C605281739078C
:1044C0004A075B07B0F420919F053091A005409109
:1044D000A1055091A2058091C3059091C405A091BA
:1044E000C505B091C605281739074A075B0709F0CB
:1044F00043C020912C0630912D0640912E065091FC
:104500002F068091E7059091E805A091E905B0910B
:10451000EA05281739074A075B0750F120912C0656
:1045200030912D0640912E0650912F0680910B065A
:1045300090910C06A0910D06B0910E062817390730
:104540004A075B07A8F42091E7053091E805409100
:10455000E9055091EA0580910B0690910C06A09117
:104560000D06B0910E06281739074A075B0721F49C
:104570008091F204813011F4969A03C096981092BB
:10458000F20420912C0630912D0640912E06509178
:104590002F0680915B0590915C05A0915D05B0911F
:1045A0005E05281739074A075B0758F120912C064A
:1045B00030912D0640912E0650912F0680917F0557
:1045C00090918005A0918105B09182052817390747
:1045D0004A075B07B0F420915B0530915C05409180
:1045E0005D0550915E0580917F0590918005A091B9
:1045F0008105B0918205281739074A075B0709F042
:1046000083C020912C0630912D0640912E065091AA
:104610002F068091A3059091A405A091A505B091C6
:10462000A605281739074A075B0758F120912C0681
:1046300030912D0640912E0650912F068091C7058E
:104640009091C805A091C905B091CA0528173907EE
:104650004A075B07B0F42091A3053091A40540916F
:10466000A5055091A6058091C7059091C805A09118
:10467000C905B091CA05281739074A075B0709F031
:1046800043C020912C0630912D0640912E0650916A
:104690002F068091EB059091EC05A091ED05B0916E
:1046A000EE05281739074A075B0750F120912C06C1
:1046B00030912D0640912E0650912F0680910F06C5
:1046C00090911006A0911106B09112062817390793
:1046D0004A075B07A8F42091EB053091EC05409167
:1046E000ED055091EE0580910F0690911006A09176
:1046F0001106B0911206281739074A075B0721F403
:104700008091F304813011F4979A03C09798109226
:10471000F30420912C0630912D0640912E065091E5
:104720002F0680915F0590916005A0916105B09181
:104730006205281739074A075B0758F120912C06B4
:1047400030912D0640912E0650912F0680918305C1
:1047500090918405A0918505B091860528173907A9
:104760004A075B07B0F420915F05309160054091E6
:104770006105509162058091830590918405A09117
:104780008505B0918605281739074A075B0709F0A8
:1047900083C020912C0630912D0640912E06509119
:1047A0002F068091A7059091A805A091A905B09129
:1047B000AA05281739074A075B0758F120912C06EC
:1047C00030912D0640912E0650912F068091CB05F9
:1047D0009091CC05A091CD05B091CE052817390751
:1047E0004A075B07B0F42091A7053091A8054091D6
:1047F000A9055091AA058091CB059091CC05A09177
:10480000CD05B091CE05281739074A075B0709F097
:1048100043C020912C0630912D0640912E065091D8
:104820002F068091EF059091F005A091F105B091D0
:10483000F205281739074A075B0750F120912C062B
:1048400030912D0640912E0650912F06809113062F
:1048500090911406A0911506B091160628173907F5
:104860004A075B07A8F42091EF053091F0054091CD
:10487000F1055091F2058091130690911406A091D4
:104880001506B0911606281739074A075B0721F469
:104890008091F404813011F4A89A03C0A898109272
:1048A000F40420912C0630912D0640912E06509153
:1048B0002F068091630590916405A0916505B091E4
:1048C0006605281739074A075B0758F120912C061F
:1048D00030912D0640912E0650912F06809187052C
:1048E00090918805A0918905B0918A05281739070C
:1048F0004A075B07B0F4209163053091640540914D
:104900006505509166058091870590918805A09175
:104910008905B0918A05281739074A075B0709F00E
:1049200083C020912C0630912D0640912E06509187
:104930002F068091AB059091AC05A091AD05B0918B
:10494000AE05281739074A075B0758F120912C0656
:1049500030912D0640912E0650912F068091CF0563
:104960009091D005A091D105B091D20528173907B3
:104970004A075B07B0F42091AB053091AC0540913C
:10498000AD055091AE058091CF059091D005A091D5
:10499000D105B091D205281739074A075B0709F0FE
:1049A00043C020912C0630912D0640912E06509147
:1049B0002F068091F3059091F405A091F505B09133
:1049C000F605281739074A075B0750F120912C0696
:1049D00030912D0640912E0650912F06809117069A
:1049E00090911806A0911906B0911A062817390758
:1049F0004A075B07A8F42091F3053091F405409134
:104A0000F5055091F6058091170690911806A09132
:104A10001906B0911A06281739074A075B0721F4CF
:104A20008091F504813089F48091E804882309F4A9
:104A3000A99A81E080933A068091400682538230A1
:104A400048F081E38093400605C0A9981092F504D0
:104A500010923A0620912C0630912D0640912E0698
:104A600050912F068091670590916805A091690586
:104A7000B0916A05281739074A075B0758F120915A
:104A80002C0630912D0640912E0650912F068091D4
:104A90008B0590918C05A0918D05B0918E052817FE
:104AA00039074A075B07B0F4209167053091680524
:104AB0004091690550916A0580918B0590918C0514
:104AC000A0918D05B0918E05281739074A075B071D
:104AD00009F083C020912C0630912D0640912E06BE
:104AE00050912F068091AF059091B005A091B1052E
:104AF000B091B205281739074A075B0758F1209192
:104B00002C0630912D0640912E0650912F06809153
:104B1000D3059091D405A091D505B091D60528175D
:104B200039074A075B07B0F42091AF053091B00513
:104B30004091B1055091B2058091D3059091D40573
:104B4000A091D505B091D605281739074A075B070C
:104B500009F043C020912C0630912D0640912E067D
:104B600050912F068091F7059091F805A091F905D5
:104B7000B091FA05281739074A075B0750F12091D1
:104B80002C0630912D0640912E0650912F068091D3
:104B90001B0690911C06A0911D06B0911E062817B9
:104BA00039074A075B07A8F42091F7053091F8050B
:104BB0004091F9055091FA0580911B0690911C06D1
:104BC000A0911D06B0911E06281739074A075B07FA
:104BD00021F48091F604813089F48091EE048823D9
:104BE00009F4AA9A81E080933B06809104058253E0
:104BF000823048F081E38093040505C0AA981092A2
:104C0000F60410923B0620912C0630912D0640911F
:104C10002E0650912F0680916B0590916C05A09106
:104C20006D05B0916E05281739074A075B0758F1E3
:104C300020912C0630912D0640912E0650912F0682
:104C400080918F0590919005A0919105B09192056A
:104C5000281739074A075B07B0F420916B0530919C
:104C60006C0540916D0550916E0580918F05909176
:104C70009005A0919105B0919205281739074A0730
:104C80005B0709F083C020912C0630912D064091DE
:104C90002E0650912F068091B3059091B405A091F6
:104CA000B505B091B605281739074A075B0758F1D3
:104CB00020912C0630912D0640912E0650912F0602
:104CC0008091D7059091D805A091D905B091DA05CA
:104CD000281739074A075B07B0F42091B3053091D4
:104CE000B4054091B5055091B6058091D7059091D6
:104CF000D805A091D905B091DA05281739074A07D8
:104D00005B0709F043C020912C0630912D0640919D
:104D10002E0650912F068091FB059091FC05A091E5
:104D2000FD05B091FE05281739074A075B0750F1CA
:104D300020912C0630912D0640912E0650912F0681
:104D400080911F0690912006A0912106B091220625
:104D5000281739074A075B07A8F42091FB05309113
:104D6000FC054091FD055091FE0580911F06909134
:104D70002006A0912106B0912206281739074A077C
:104D80005B0721F48091F704813089F48091FA0463
:104D9000882309F4AB9A81E080933C068091030557
:104DA0008253823048F081E38093030505C0AB98BD
:104DB0001092F70410923C061092F904AC9A2091DC
:104DC0002C0630912D0640912E0650912F06809191
:104DD000860490918704A0918804B0918904821779
:104DE0009307A407B50708F075C120912C063091F0
:104DF0002D0640912E0650912F0680918A049091A5
:104E00008B04A0918C04B0918D04281739074A07B0
:104E10005B0708F05FC120912C0630912D06409170
:104E20002E0650912F0680916F0590917005A091EC
:104E30007105B0917205281739074A075B0758F1C9
:104E400020912C0630912D0640912E0650912F0670
:104E50008091930590919405A0919505B091960548
:104E6000281739074A075B07B0F420916F05309186
:104E70007005409171055091720580919305909154
:104E80009405A0919505B0919605281739074A0712
:104E90005B0709F084C020912C0630912D064091CB
:104EA0002E0650912F068091B7059091B805A091DC
:104EB000B905B091BA05281739074A075B0758F1B9
:104EC00020912C0630912D0640912E0650912F06F0
:104ED0008091DB059091DC05A091DD05B091DE05A8
:104EE000281739074A075B07B0F42091B7053091BE
:104EF000B8054091B9055091BA058091DB059091B4
:104F0000DC05A091DD05B091DE05281739074A07B9
:104F10005B0709F044C020912C0630912D0640918A
:104F20002E0650912F068091FF0590910006A091CA
:104F30000106B0910206281739074A075B0750F1AE
:104F400020912C0630912D0640912E0650912F066F
:104F50008091230690912406A0912506B091260603
:104F6000281739074A075B07A8F42091FF053091FD
:104F7000000640910106509102068091230690910F
:104F80002406A0912506B0912606281739074A075E
:104F90005B0729F480910505882309F454C08091AA
:104FA0004C058F5F80934C058A3051F560913A052E
:104FB00070913B0580913C0590913D0560934205C1
:104FC00070934305809344059093450529E0209311
:104FD0004C056090750470907604809077049090F2
:104FE0007804A40193010E944B2E8823ACF46092B4
:104FF00042057092430580924405909245050CC08D
:1050000080E090E0AFE7B3E48093420590934305DE
:10501000A0934405B0934505609142057091430506
:1050200080914405909145050E94B72E6CBF8091F8
:105030003F06823309F44EC0843309F44BC081E348
:1050400080933F0647C010924C05D0904A05DD2062
:1050500059F060913A0570913B0580913C05909123
:105060003D050E94B72E6CBF10914D05112359F0DC
:1050700060914605709147058091480590914905DA
:105080000E94B72E6CBFE0904B05EE2059F0609166
:105090003E0570913F0580914005909141050E9429
:1050A000B72E6CBF80E090E0112311F481E090E016
:1050B0009C012170307080E0DD2009F481E090E0F7
:1050C000EE2009F491E0892390E028233923232B53
:1050D00009F01CBE20912C0630912D0640912E0621
:1050E00050912F0680918E0490918F04A09190048E
:1050F000B091910482179307A407B50708F07AC00E
:1051000020912C0630912D0640912E0650912F06AD
:105110008091920490919304A0919404B09195048D
:10512000281739074A075B0708F064C08091EE042E
:10513000882309F44CC08091710490917204A0E01E
:10514000B0E0209130063091310640913206509106
:105150003306281739074A075B0718F081E0809368
:10516000EF048091730490917404A0E0B0E020916A
:105170003006309131064091320650913306821745
:105180009307A407B50710F01092EF048091EF0485
:10519000882329F083E380930405AA9A2BC0AA9858
:1051A00080913B06882319F081E380930405809168
:1051B000F604882319F082E38093040580913B066E
:1051C0008823C1F48091F6048823A1F410C0809153
:1051D000F604813019F482E38093040580913B0644
:1051E000882341F48091F604882321F4AA9880E36F
:1051F0008093040520912C0630912D0640912E06B7
:1052000050912F0680917E0490917F04A09180049C
:10521000B091810482179307A407B507B8F42091D1
:105220002C0630912D0640912E0650912F0680912C
:10523000820490918304A0918404B091850428177E
:1052400039074A075B0710F4AD9801C0AD9A0E9478
:105250006F050E943D0E80914306882311F00E9445
:10526000EF1090B383B381708295807F92959F7089
:10527000890F8093380690B383B38295807F92958F
:105280009F70890F809339069091F104990F809156
:10529000F204880F880F892B9091F004892B90914C
:1052A000F304990F990F990F982B8091F40482952C
:1052B000807F892B80933E0640E050E080914D0531
:1052C000882311F441E050E020E030E080914C056B
:1052D000882311F421E030E02423352390E08091ED
:1052E0004A05882309F491E040E080914B0588232A
:1052F00009F441E09423892F90E028233923232BBC
:1053000019F080E380933F0690E08091F6048823B3
:1053100009F491E020E080913B06882309F421E024
:105320009223292F30E040E050E08091EE04882362
:1053300011F441E050E024233523232B19F080E3BE
:105340008093040540E050E080910005882311F42B
:1053500041E050E020E030E08091FB04882311F42C
:1053600021E030E02423352390E08091F704882366
:1053700009F491E040E080913C06882309F441E083
:105380009423892F90E028233923232B19F080E3DD
:105390008093030590E08091F504882309F491E05F
:1053A00020E080913A06882309F421E09223292FF6
:1053B00030E040E050E08091EC04882311F441E0BB
:1053C00050E024233523232B19F080E380934006FB
:1053D0008091E80490914106813011F4916001C000
:1053E0009E7F909341068091E9049091410681301F
:1053F00011F4926001C09D7F909341068091EE046C
:1054000090914106813011F4946001C09B7F90938C
:1054100041068091FA0490914106813011F4986020
:1054200001C0977F909341061092F804E0EFF4E0FA
:1054300091E08081882321F480914A05882311F02E
:105440009093F804319634E0E83FF30791F78091A8
:1054500000058823B1F021E22093A20485E4809323
:10546000A30492E59093A4049093A5048FE4809301
:10547000A6049093A7042093A80440E24093A904B3
:1054800031C08091F8048823B1F091E29093A20496
:105490009093A30488E48093A40451E45093A5045A
:1054A0008EE48093A60484E48093A7049093A804D8
:1054B0009093A90417C084E58093A20489E48093A3
:1054C000A3048DE48093A40485E48093A50482E57D
:1054D0008093A60483E58093A70480E28093A804C8
:1054E0008093A9048091390680FF04C081E38093F2
:1054F000DE0403C09DE29093DE048091390681FFB3
:1055000004C082E38093DF0403C0ADE2A093DF0414
:105510008091390682FF04C083E38093E00403C0D6
:10552000BDE2B093E0048091390683FF04C0E4E358
:10553000E093E10403C0FDE2F093E10480913906B9
:1055400084FF04C025E32093E20403C03DE23093CE
:10555000E2048091390685FF04C046E34093E304EA
:1055600003C05DE25093E3048091390686FF04C0D6
:1055700087E38093E40403C09DE29093E404809168
:10558000390687FF04C0A8E3A093E50403C0BDE289
:10559000B093E5048CB7882321F0E3E4E093E604BC
:1055A00003C0FDE2F093E60480911105909112058D
:1055B0009B7F909312058093110580911105909126
:1055C000120594FF0FC0DB9A84E191E00197F1F797
:1055D000DB9880911105909112059F7E90931205A2
:1055E00080931105809111059091120595FFB8C225
:1055F00080910C05882309F0AAC281E080930C05F4
:1056000083E490E09093100580930F0560913A0534
:1056100070913B0580913C0590913D0523E333E378
:1056200043E250E40E944F2E0E94B72E5B016C01B2
:1056300070930705609306058BE38093650081EA0C
:10564000809366008091970480936700809198040E
:105650008093680080919A048093690080919B04F4
:1056600080936A0080919D0480936B0080919E04DA
:1056700080936C008091B00480936D008091B104A0
:1056800080936E008091B30480936F008091C40476
:10569000809370008091C504809371008091C7044D
:1056A000809372008091D804809373008091D90414
:1056B000809374008091DB04809375008091BA041C
:1056C000809376008091BB04809377008091BD0425
:1056D000809378008091BE04809379008091CE04FD
:1056E00080937A008091D00480937B008091D104D4
:1056F00080937C008091D20480937D008091380655
:1057000080937E0080913E0680937F0080913F06CB
:1057100080938000E0906504F09066040091670437
:1057200010916804C801B70128EE33E040E050E072
:105730000E946C30205D20938100C801B70128EEE3
:1057400033E040E050E00E946C307B018C0124E6A5
:1057500030E040E050E00E946C30205D20938200F9
:10576000C801B70124E630E040E050E00E946C3010
:105770007B018C012AE030E040E050E00E946C3078
:10578000205D20938300C801B7012AE030E040E0AB
:1057900050E00E946C30605D60938400E09069048A
:1057A000F0906A0400916B0410916C04C801B70179
:1057B00020EA36E841E050E00E946C30205D209302
:1057C0008500C801B70128EE33E040E050E00E94B8
:1057D0006C30CA01B90124E630E040E050E00E949C
:1057E0006C307B018C012AE030E040E050E00E9408
:1057F0006C30205D20938600C801B7012AE030E0BC
:1058000040E050E00E946C30605D60938700E09063
:105810006D04F0906E0400916F0410917004C80143
:10582000B70128EE33E040E050E00E946C30205D8C
:1058300020938800C801B70128EE33E040E050E033
:105840000E946C307B018C0124E630E040E050E0A7
:105850000E946C30205D20938900C801B70124E6C6
:1058600030E040E050E00E946C307B018C012AE087
:1058700030E040E050E00E946C30205D20938A00D0
:10588000C801B7012AE030E040E050E00E946C30EF
:10589000605D60938B008091410680938C00209125
:1058A000FC043091FD04C90168EE73E00E943730BA
:1058B000605D60938D00C90168EE73E00E9437302F
:1058C0009C0164E670E00E943730605D60938E005A
:1058D000C90164E670E00E9437309C016AE070E024
:1058E0000E943730605D60938F00C9016AE070E00C
:1058F0000E943730805D809390002091FE043091AB
:10590000FF04C90168EE73E00E943730605D609368
:105910009100C90168EE73E00E9437309C0164E693
:1059200070E00E943730605D60939200C90164E6C8
:1059300070E00E9437309C016AE070E00E943730CE
:10594000605D60939300C9016AE070E00E943730A7
:10595000805D809394002091200530912105C9013C
:1059600068EE73E00E943730605D60939500C90176
:1059700068EE73E00E9437309C0164E670E00E949C
:105980003730605D60939600C90164E670E00E9464
:1059900037309C016AE070E00E943730605D6093B0
:1059A0009700C9016AE070E00E943730805D809303
:1059B0009800809103058093990060918204709112
:1059C0008304809184049091850420EA36E841E0C4
:1059D00050E00E944A30205D20939A00609182043A
:1059E00070918304809184049091850420EA36E8C4
:1059F00041E050E00E944A3020E137E240E050E0D0
:105A00000E944A30205D20939B0060917E0470913B
:105A10007F04809180049091810420EA36E841E07F
:105A200050E00E944A30205D20939C0060917E04EB
:105A300070917F04809180049091810420EA36E87F
:105A400041E050E00E944A3020E137E240E050E07F
:105A50000E944A30205D20939D0060918A047091DD
:105A60008B0480918C0490918D0420EA36E841E00B
:105A700050E00E944A30205D20939E0060918A048D
:105A800070918B0480918C0490918D0420EA36E80B
:105A900041E050E00E944A3020E137E240E050E02F
:105AA0000E944A30205D20939F006091860470918F
:105AB0008704809188049091890420EA36E841E0C7
:105AC00050E00E944A30205D2093A000609186043F
:105AD00070918704809188049091890420EA36E8C7
