:100000000C9443000C9460000C9460000C9460000D
:100010000C9460000C94EC040C9460000C94600050
:100020000C9460000C9460000C9460000C946000D0
:100030000C9460000C94BC030C9466030C94940321
:100040000C9460000C9460000C9460000C946000B0
:100050000C946000E21757198E19DC19141BE6196D
:100060005B1A951D261ECD1ECD1ECD1ECD1ECD1E8E
:10007000CD1E891E611AE21A88198B1DEB1AF91A16
:10008000FF1A081B111B11241FBECFE5D8E0DEBFED
:10009000CDBF14E0A0E6B0E0E0ECFDE502C00590C5
:1000A0000D92A83EB107D9F716E0A8EEB4E001C062
:1000B0001D92A335B107E1F70E94D5140C94DE2EF2
:1000C0000C9400008115910511F00197F1F7089546
:1000D000282F392FF90120E030E080E0A8E112C09C
:1000E000419198E0542F5827B52FB17050FD8A27C1
:1000F0008695B13009F48068915011F04695F2CFA1
:100100002F5F3F4F2617370759F70895809149060B
:10011000833631F0843631F0823681F486B303C001
:1001200083B301C080B390914B0621E030E002C060
:10013000220F331F9A95E2F78223089580E00895F5
:1001400080914906833691F08436F1F0823649F584
:1001500028B330914B0681E090E002C0880F991FD0
:100160003A95E2F78095822388BB089525B33091B4
:100170004B0681E090E002C0880F991F3A95E2F7A4
:100180008095822385BB089522B330914B0681E090
:1001900090E002C0880F991F3A95E2F7809582237C
:1001A00082BB089580914906833689F08436E1F058
:1001B000823631F527B330914B0681E090E002C0E2
:1001C000880F991F3A95E2F7282B27BB089524B38F
:1001D00030914B0681E090E002C0880F991F3A955C
:1001E000E2F7282B24BB089521B330914B0681E020
:1001F00090E002C0880F991F3A95E2F7282B21BBA7
:10020000089580914906833651F0843671F0823624
:1002100089F497B380914A06892387BB089594B3E4
:1002200080914A06892384BB089591B380914A0640
:10023000892381BB089580914906833681F08436F5
:10024000D1F0823621F528B330914B0681E090E061
:1002500002C0880F991F3A95E2F7282B28BB25B3D7
:1002600030914B0681E090E002C0880F991F3A95CB
:10027000E2F7282B25BB22B330914B0681E090E0BA
:1002800002C0880F991F3A95E2F7282B22BB0895E8
:100290001F93182FF8940E94D20082E090E00E94F1
:1002A0006200112311F00E94010183E290E00E949C
:1002B00062000E948600882309F410E08CE790E039
:1002C0000E9462000E9401017894812F1F9108957D
:1002D0000F931F93182F08E0812F81700E9448010F
:1002E0001695811110680150B9F7812F1F910F9158
:1002F00008958FEF0E94680108950F931F930E9445
:10030000A0000E94D20085E395E00E9462000FB732
:10031000F8940E94010187EB90E00E9462000E9425
:100320008600182F8DE794E00E9462000E948600EC
:10033000882309F411E00FBF7894812F1F910F914A
:1003400008951F93182F0E947D018CEC0E94680174
:10035000812F0E9468011F9108950E941B010E9435
:10036000D20008958093490660934B0681E090E0A7
:1003700002C0880F991F6A95E2F7809580934A061C
:100380000895CF92DF92EF92FF920F931F93DF9326
:10039000CF93CDB7DEB729970FB6F894DEBF0FBE67
:1003A000CDBF8C01862F642F0E94B2018EEB0E947C
:1003B000A1017E010894E11CF11C8AE0C82ED12C19
:1003C000CC0EDD1E0E947901F70181937F01EC15AF
:1003D000FD05C1F7CE01019669E070E00E9468005A
:1003E000882359F43A8120E0898190E0822B932B75
:1003F000F8019183808380E001C083E029960FB6E5
:10040000F894DEBF0FBECDBFCF91DF911F910F914A
:10041000FF90EF90DF90CF9008951F93182F862FB5
:10042000642F0E94B2010E947D010E9486008823F1
:1004300041F084E40E94A101113029F00E94AD0135
:1004400002C082E001C080E01F9108958A988B98D5
:1004500092989398089581B38C70E9F708958A98DB
:100460008B9885E090E00E9462008A9A85E090E097
:100470000E9462008B9A85E090E00E9462000895DD
:100480008A9A8B9885E090E00E9462008A9885E0C5
:1004900090E00E94620008950F931F93082F18E0C8
:1004A00007FF02C08A9801C08A9A85E090E00E9406
:1004B00062008B9885E090E00E9462008B9A85E054
:1004C00090E00E946200115011F0000FE9CF8A9A6B
:1004D0008B9885E090E00E94620010B38B9A85E0D3
:1004E00090E00E94620081E012FD80E01F910F9178
:1004F0000895FF920F931F93F82E8A9810E008E05A
:10050000110F8B9885E090E00E94620020B330E0EC
:10051000247030703595279535952795122B8B9A39
:1005200085E090E00E946200015051F7F1108A9A34
:100530008B9885E090E00E9462008B9A812F1F913A
:100540000F91FF9008951F93DF93CF930F92CDB734
:10055000DEB7182F69830E942F0280ED0E944C02A3
:10056000812F0E944C026981862F0E944C020E94BA
:1005700040020F90CF91DF911F9108951F93DF9359
:10058000CF930F92CDB7DEB7182F0E942F0280EDC8
:100590000E944C02812F0E944C020E9440020E9445
:1005A0002F0281ED0E944C0280E00E947902898333
:1005B0000E94400289810F90CF91DF911F91089591
:1005C00082E00E94BE0286FF05C0682F6F7B82E03A
:1005D0000E94A30280E00E94BE0287FF05C0682F30
:1005E0006F7780E00E94A30208950E942F0280EDA1
:1005F0000E944C0280E00E944C020E942F0281ED7A
:100600000E944C0281E00E9479028093500681E0B2
:100610000E9479028093510680E00E9479028093C3
:1006200052060E944002089564E60E94302E892FEF
:100630006AE00E94302E8295807F890F0895809114
:100640004D060E941403682F82E00E94A30280914D
:100650004E060E941403682F81E00E94A30280913D
:100660004F060E941403682F80E00E94A3020895A1
:100670008898899A87E489B910BC1BB888ED8AB933
:1006800086E880BD089580910A0590910B0501963A
:1006900090930B0580930A0520910A0530910B0574
:1006A00080910F05909110052817390731F41092A9
:1006B0000C05539855985E980895E0910A05F091BD
:1006C0000B05EB59FF4F80818CB908951F920F9253
:1006D0000FB60F9211242F933F934F935F936F9315
:1006E0007F938F939F93AF93BF93EF93FF930E945A
:1006F0004303FF91EF91BF91AF919F918F917F91B4
:100700006F915F914F913F912F910F900FBE0F907E
:100710001F90189510920B0510920A05539A80911C
:1007200065008CB9559A08951F920F920FB60F92DB
:1007300011242F933F934F935F936F937F938F93E6
:100740009F93AF93BF93EF93FF9380910C05882302
:1007500011F00E948A03FF91EF91BF91AF919F9199
:100760008F917F916F915F914F913F912F910F905A
:100770000FBE0F901F9018951F920F920FB60F92F9
:1007800011242F933F934F935F936F937F938F9396
:100790009F93AF93BF93EF93FF93E0910D05F0917B
:1007A0000E058CB1EB59FD4F8083E0910D05F09162
:1007B0000E05EB59FD4F80818B3359F410920E05D5
:1007C00010920D05E0910D05F0910E05EB59FD4FCE
:1007D0008083E0910D05F0910E05EB59FD4F80816E
:1007E000833B29F581E080930C0580E090E009C00F
:1007F000FC01EB59FD4F2081FC01EB59FF4F208399
:10080000019620910D0530910E052817390780F7C4
:1008100080910D0590910E0501969093100580939F
:100820000F050E948A0310920E0510920D0580910B
:100830000D0590910E05019690930E0580930D0580
:10084000FF91EF91BF91AF919F918F917F916F91A8
:100850005F914F913F912F910F900FBE0F901F907E
:100860001895AE9A88E292E00197F1F700C0000077
:10087000AE9888E292E00197F1F700C00000089579
:10088000DF93CF930F92CDB7DEB7AF98E8E2F2E0F7
:100890003197F1F700C0000029B3982F907F2F7097
:1008A000922B9BBB89830E94310499B389818295E5
:1008B000807F9F70892B8BBB0E9431040F90CF915A
:1008C000DF910895A79AA69AAF9888E292E00197DF
:1008D000F1F700C0000089B38F7080628BBB0E946B
:1008E000310488E20E94400493E99A95F1F700C030
:1008F0008CE00E944004A3E9AA95F1F700C081E0D2
:100900000E94400489E995E10197F1F700C086E073
:100910000E94400493E99A95F1F700C089E999E5AE
:10092000A1E081509040A040E1F700000895DF93DE
:10093000CF930F92CDB7DEB7AF9AE8E2F2E03197EE
:10094000F1F700C0000029B3982F907F2F70922BF1
:100950009BBB89830E94310499B389818295807FF2
:100960009F70892B8BBB0E9431040F90CF91DF9138
:100970000895EF92FF921F93DF93CF9300D0CDB7EE
:10098000DEB7823061F0833018F4813069F405C03D
:10099000833039F0843041F406C0605805C060549B
:1009A00003C06C5601C06C52862F49835A830E9443
:1009B000400449815A817A0114E1F70181917F0154
:1009C0000E9497041150C9F70F900F90CF91DF91BB
:1009D0001F91FF90EF9008951F920F920FB60F9204
:1009E00011242F933F934F935F938F939F938FE1A6
:1009F00084BD20914406309145062F5F3F4F3093D0
:100A000045062093440640911105509112058091AE
:100A10004606909147068095909582239323842BD8
:100A2000952B9093120580931105309347062093E0
:100A300046069F918F915F914F913F912F910F901B
:100A40000FBE0F901F9018951F93CF93DF93EC016B
:100A5000CF70D07097FF0FC0AA27BB27A81BB90B78
:100A6000F4E0B695A795FA95E1F7E0E1F0E0EC1B2C
:100A7000FD0B1DE208C0DC01E4E0B695A795EA9500
:100A8000E1F7FE011BE2009709F410E2EB01B983E4
:100A9000A88361E772E0E69FC001E79F900DF69F93
:100AA000900D1124FA0191838083E9011883DF916D
:100AB000CF911F910895EF92FF920F931F93809112
:100AC000E804813021F0823009F068C113C18091BF
:100AD00096048230A1F0833011F18130C9F5809104
:100AE000B30490E0805D94413091B00424E6329FDD
:100AF00090011124820F931F3091B1041FC0809187
:100B0000C70490E0805D94413091C40424E6329F94
:100B100090011124820F931F3091C5040FC0809162
:100B2000DB0490E0805D94413091D80424E6329F4C
:100B300090011124820F931F3091D9042AE0329F33
:100B400090011124820F931F9093EB048093EA0489
:100B50002091EA043091EB042115310509F41EC1FE
:100B60008091600090916100821B930B2091640042
:100B700030E0281739071CF481E08093EC04809161
:100B8000EC04882399F0A99A1CBE2091EA043091C4
:100B9000EB0480916000909161002817390714F0F0
:100BA0001092EC0483E38093400601C0A9988091E1
:100BB000EA049091EB042091600030916100821B67
:100BC000930B2091640030E0281739071CF481E072
:100BD0008093ED048091ED04882309F487C020916F
:100BE0002C0630912D0640912E0650912F068091B3
:100BF000860490918704A0918804B091890482179B
:100C00009307A407B50708F071C020912C06309116
:100C10002D0640912E0650912F0680918A049091C6
:100C20008B04A0918C04B0918D04281739074A07D2
:100C30005B0708F05BC080914B058F5F80934B058D
:100C40008A3051F589E080934B0560916200709184
:100C5000630080E090E00E94FC2C60933E0570935E
:100C60003F058093400590934105E0907504F09016
:100C700076040091770410917804A80197010E94EE
:100C8000642C87FF15C0E0923E05F0923F0500936B
:100C90004005109341050CC080E090E0AFE7B3E45D
:100CA00080933E0590933F05A0934005B093410586
:100CB00060913E0570913F058091400590914105FE
:100CC0000E94D02C6CBF2091EA043091EB048091FB
:100CD0006000909161008217930724F01092ED0458
:100CE00010924B0583E380933F0658C01CBE1092C0
:100CF0004B0554C08091F504813021F482E3809348
:100D0000400607C0882329F480913A06882309F415
:100D1000A99880914A05882311F010924A05809184
:100D20004D05882359F060914605709147058091E3
:100D30004805909149050E94D02C6CBF80914C05CC
:100D4000882311F010924C0540914A05442319F074
:100D500082E380933F0621E030E080914D058823B7
:100D600011F020E030E081E090E050914C055523F7
:100D700011F080E090E02823392391E080914B0529
:100D8000811190E081E0411180E0892390E082238D
:100D90009323009709F01CBE1092E8048091E904A7
:100DA000813021F0823009F04DC1F8C020912C062D
:100DB00030912D0640912E0650912F068091860489
:100DC00090918704A0918804B0918904281739076D
:100DD0004A075B0708F4DEC020912C0630912D06EF
:100DE00040912E0650912F0680918A0490918B0499
:100DF000A0918C04B0918D04281739074A075B072E
:100E000008F0C8C08091ED04882309F01BC18091CF
:100E1000270690912806A0912906B0912A060097EE
:100E2000A105B10529F480912B068F5F80932B06D5
:100E30008091270690912806A0912906B0912A0654
:100E400020912706309128064091290650912A06C4
:100E50008091790490917A04A0917B04B0917C04F4
:100E6000281739074A075B07D8F520912B06909180
:100E70007D0430E083E0989FC001112428173907D2
:100E800009F0E0C080914D058F5F80934D058A3059
:100E900061F489E080934D0580917504909176040A
:100EA000A0917704B091780404C080E090E0AFE7AF
:100EB000B3E48093460590934705A0934805B0930B
:100EC00049056091460570914705809148059091CC
:100ED00049050E94D02C6CBF84E380933F06B2C0CA
:100EE00080914D05882321F010924D0510922B061C
:100EF00080914A05882359F060913A0570913B052D
:100F000080913C0590913D050E94D02C6CBF809152
:100F10004C05882359F060914205709143058091FA
:100F20004405909145050E94D02C6CBF80914B05E3
:100F3000882359F060913E0570913F0580914005EE
:100F4000909141050E94D02C6CBF21E030E080914F
:100F50004D05882311F020E030E081E090E04091E1
:100F60004C05442311F080E090E02823392391E0E0
:100F700080914B05811190E081E040914A0541113B
:100F800080E0892390E082239323009709F45AC0DC
:100F90001CBE58C01CBE10924D0554C010922B06AA
:100FA00080914A05882359F060913A0570913B057C
:100FB00080913C0590913D050E94D02C6CBF8091A2
:100FC0004C05882359F0609142057091430580914A
:100FD0004405909145050E94D02C6CBF80914B0533
:100FE000882359F060913E0570913F05809140053E
:100FF000909141050E94D02C6CBF21E030E080919F
:101000004D05882311F020E030E081E090E0409130
:101010004C05442311F080E090E02823392391E02F
:1010200080914B05811190E081E040914A0541118A
:1010300080E0892390E082239323009709F01CBE6F
:101040001092E9041F910F91FF90EF900895809105
:1010500042068F5F80934206873009F41FC28830B2
:1010600090F4833009F4FEC0843030F4813009F10B
:10107000823009F049C46AC0853009F481C18630E4
:1010800008F0C5C136C18B3009F424C38C3038F464
:10109000893009F491C28A3008F0D5C246C28D3039
:1010A00009F4A8C38D3008F45CC38E3009F02CC459
:1010B000EDC388EE93E06DE170E00E94C92E40918F
:1010C00065045091660460916704709168048AE039
:1010D00090E00E94C12E4091690450916A04609191
:1010E0006B0470916C048EE090E00E94C12E4091E0
:1010F0006D0450916E0460916F047091700482E1F0
:1011000090E00E94C12E86E190E06091F0040E9480
:10111000B42E87E190E06091F1040E94B42E88E142
:1011200090E06091F2040E94B42E89E190E0609119
:10113000F3040E94B42E8AE190E06091F4040E94CE
:10114000B42E8BE190E06091F504D0C08CE190E08A
:101150006091F6040E94B42E8DE190E06091F70456
:101160000E94B42E8EE190E060914A050E94B42E58
:101170008FE190E060914B050E94B42E80E290E0F8
:1011800060914C050E94B42E81E290E060914D0583
:101190000E94B42E60913A0570913B0580913C0508
:1011A00090913D050E94D02C82E290E00E94B42EE6
:1011B00060913E0570913F058091400590914105F9
:1011C0000E94D02C83E290E00E94B42E60914205F0
:1011D0007091430580914405909145050E94D02C63
:1011E00084E290E00E94B42E60914605709147051C
:1011F00080914805909149050E94D02C85E290E0AD
:101200000E94B42E609175047091760480917704E9
:10121000909178040E94D02C86E290E00E94B42E37
:1012200087E290E060913F060E94B42E6CB788E29E
:1012300090E00E94B42E409182045091830460910A
:1012400084047091850489E290E00E94C12E40914F
:101250007E0450917F0460918004709181048DE23E
:1012600090E0C5C240918A0450918B0460918C0437
:1012700070918D0481E390E00E94C12E409186041C
:1012800050918704609188047091890485E390E00F
:101290000E94C12E89E390E06091E8040E94B42E80
:1012A0008AE390E0609196040E94B42E6091600001
:1012B000709161008BE390E00E94C92E8DE390E075
:1012C000609164000E94B42E60916200709163008E
:1012D0008EE390E00E94C92E80E490E06091ED04DE
:1012E0000E94B42E81E490E06091EC040E94B42E40
:1012F000089540914F0550915005609151057091AE
:10130000520582E490E00E94C12E409197055091D1
:1013100098056091990570919A0586E690E00E9483
:10132000C12E4091DF055091E0056091E10570917B
:10133000E2058AE890E00E94C12E40917305509129
:10134000740560917505709176058EEA90E00E94B3
:10135000C12E4091BB055091BC056091BD057091B7
:10136000BE0582ED90E00E94C12E4091030650918F
:101370000406609105067091060686EF90E037C27C
:101380004091530550915405609155057091560553
:1013900086E490E00E94C12E40919B0550919C05EF
:1013A00060919D0570919E058AE690E00E94C12E95
:1013B0004091E3055091E4056091E5057091E605E3
:1013C0008EE890E00E94C12E4091770550917805FB
:1013D0006091790570917A0582EB90E00E94C12EB0
:1013E0004091BF055091C0056091C1057091C20543
:1013F00086ED90E00E94C12E4091070650910806AC
:101400006091090670910A068AEF90E0F0C1409160
:101410005705509158056091590570915A058AE415
:1014200090E00E94C12E40919F055091A0056091CF
:10143000A1057091A2058EE690E00E94C12E409118
:10144000E7055091E8056091E9057091EA0582E9A8
:1014500090E00E94C12E40917B0550917C056091E7
:101460007D0570917E0586EB90E00E94C12E409133
:10147000C3055091C4056091C5057091C6058AEDFC
:1014800090E00E94C12E40910B0650910C06609195
:101490000D0670910E068EEF90E0A9C140915B059C
:1014A00050915C0560915D0570915E058EE490E061
:1014B0000E94C12E4091A3055091A4056091A505FD
:1014C0007091A60582E790E00E94C12E4091EB0545
:1014D0005091EC056091ED057091EE0586E990E084
:1014E0000E94C12E40917F05509180056091810539
:1014F000709182058AEB90E00E94C12E4091C70551
:101500005091C8056091C9057091CA058EED90E0B3
:101510000E94C12E40910F06509110066091110655
:101520007091120682E091E062C140915F05509196
:101530006005609161057091620582E590E00E940E
:10154000C12E4091A7055091A8056091A905709101
:10155000AA0586E790E00E94C12E4091EF055091C8
:10156000F0056091F1057091F2058AE990E00E9422
:10157000C12E40918305509184056091850570913D
:1015800086058EEB90E00E94C12E4091CB055091D4
:10159000CC056091CD057091CE0582EE90E00E9461
:1015A000C12E40911306509114066091150670915A
:1015B000160686E091E01BC14091630550916405D9
:1015C000609165057091660586E590E00E94C12EE8
:1015D0004091AB055091AC056091AD057091AE05A1
:1015E0008AE790E00E94C12E4091F3055091F405E6
:1015F0006091F5057091F6058EE990E00E94C12E8C
:1016000040918705509188056091890570918A0500
:1016100082EC90E00E94C12E4091CF055091D00500
:101620006091D1057091D20586EE90E00E94C12EA6
:1016300040911706509118066091190670911A068C
:101640008AE091E0D4C040916705509168056091AF
:10165000690570916A058AE590E00E94C12E40916B
:10166000AF055091B0056091B1057091B2058EE75C
:1016700090E00E94C12E4091F7055091F8056091CD
:10168000F9057091FA0582EA90E00E94C12E40911E
:101690008B0550918C0560918D0570918E0586ECBF
:1016A00090E00E94C12E4091D3055091D4056091E5
:1016B000D5057091D6058AEE90E00E94C12E40912A
:1016C0001B0650911C0660911D0670911E068EE04F
:1016D00091E08DC040916B0550916C0560916D0556
:1016E00070916E058EE590E00E94C12E4091B30589
:1016F0005091B4056091B5057091B60582E890E00F
:101700000E94C12E4091FB055091FC056091FD05A2
:101710007091FE0586EA90E00E94C12E40918F05EF
:101720005091900560919105709192058AEC90E03E
:101730000E94C12E4091D7055091D8056091D905DE
:101740007091DA058EEE90E00E94C12E40911F0646
:1017500050912006609121067091220682E191E06D
:1017600046C040916F055091700560917105709170
:10177000720582E690E00E94C12E4091B70550911B
:10178000B8056091B9057091BA0586E890E00E94AD
:10179000C12E4091FF0550910006609101067091A5
:1017A00002068AEA90E00E94C12E40919305509172
:1017B000940560919505709196058EEC90E00E94DD
:1017C000C12E4091DB055091DC056091DD057091E3
:1017D000DE0582EF90E00E94C12E409123065091D9
:1017E0002406609125067091260686E191E00E940C
:1017F000C12E08958AE191E06091E9040E94B42E1F
:101800004091790450917A0460917B0470917C043A
:101810008BE191E00E94C12E60917D048FE191E007
:101820000E94B42E80E291E06091EE040E94B42EFA
:10183000609171047091720481E291E00E94C92E5E
:10184000609173047091740483E291E00E94C92E48
:101850004091920450919304609194047091950486
:1018600085E291E00E94C12E40918E0450918F0438
:10187000609190047091910489E291E00E94C12EE0
:101880008DE291E060913A060E94B42E8EE291E0E2
:1018900060913B060E94B42E8FE291E06091EF04CC
:1018A0000E94B42E609120057091210580E391E0A3
:1018B0000E94C92E6091FC047091FD0482E391E0C6
:1018C0000E94C92E6091FE047091FF0484E391E0B0
:1018D0000E94C92E86E391E0609103050E94B42E18
:1018E00087E391E0609104050E94B42E88E391E0C3
:1018F0006091FA040E94B42E89E391E06091400661
:101900000E94B42E109243060895EF92FF920F9317
:101910001F93CF93DF938AE090E00E94A82E6093FC
:1019200065047093660480936704909368048EE066
:1019300090E00E94A82E6093690470936A048093DB
:101940006B0490936C0482E190E00E94A82E609357
:101950006D0470936E0480936F049093700486E11D
:1019600090E00E94A02E8093F00487E190E00E9416
:10197000A02E8093F10488E190E00E94A02E809335
:10198000F20489E190E00E94A02E8093F3048AE1A2
:1019900090E00E94A02E8093F4048BE190E00E94DE
:1019A000A02E8093F5048CE190E00E94A02E8093FD
:1019B000F6048DE190E00E94A02E8093F7048EE162
:1019C00090E00E94A02E80934A058FE190E00E9453
:1019D000A02E80934B0580E290E00E94A02E809381
:1019E0004C0581E290E00E94A02E80934D0582E29A
:1019F00090E00E94A02E682F70E080E090E00E94AE
:101A0000FC2C60933A0570933B0580933C059093C2
:101A10003D0583E290E00E94A02E682F70E080E0F8
:101A200090E00E94FC2C60933E0570933F058093EC
:101A300040059093410584E290E00E94A02E682F1B
:101A400070E080E090E00E94FC2C6093420570936F
:101A50004305809344059093450585E290E00E94FC
:101A6000A02E682F70E080E090E00E94FC2C609334
:101A7000460570934705809348059093490586E293
:101A800090E00E94A02E682F70E080E090E00E941D
:101A9000FC2C609375047093760480937704909384
:101AA000780487E290E00E94A02E80933F0688E2AF
:101AB00090E00E94A02E8CBF89E290E00E94A82EA8
:101AC00060938204709383048093840490938504CC
:101AD0008DE290E00E94A82E60937E0470937F04B4
:101AE000809380049093810481E390E00E94A82E6B
:101AF00060938A0470938B0480938C0490938D047C
:101B000085E390E00E94A82E60938604709387047A
:101B1000809388049093890489E390E00E94A02E2A
:101B20008093E8048AE390E00E94A02E80939604BC
:101B30008BE390E00E94AE2E909361008093600052
:101B40008DE390E00E94A02E809364008EE390E0ED
:101B50000E94AE2E909363008093620080E490E038
:101B60000E94A02E8093ED0481E490E00E94A02EBC
:101B70008093EC04C2E4D0E0EE24FF24CE010E9466
:101B8000A82E8701000F111F000F111FF801E15B44
:101B9000FA4F6083718382839383CE0184960E947F
:101BA000A82EF801E956FA4F6083718382839383EC
:101BB000CE01885B9F4F0E94A82EF801E152FA4F98
:101BC0006083718382839383CE0184599F4F0E94E7
:101BD000A82EF801ED58FA4F6083718382839383B6
:101BE000CE0180579F4F0E94A82EF801E554FA4F6E
:101BF0006083718382839383CE018C549F4F0E94B4
:101C0000A82EF801ED5FF94F60837183828393837F
:101C10000894E11CF11C249689E0E816F10409F00F
:101C2000ADCF8AE191E00E94A02E8093E9048BE180
:101C300091E00E94A82E6093790470937A048093B7
:101C40007B0490937C048FE191E00E94A02E80930E
:101C50007D0480E291E00E94A02E8093EE0481E258
:101C600091E00E94AE2E909372048093710483E2FF
:101C700091E00E94AE2E909374048093730485E2E9
:101C800091E00E94A82E6093920470939304809335
:101C900094049093950489E291E00E94A82E6093A9
:101CA0008E0470938F0480939004909391048DE23E
:101CB00091E00E94A02E80933A068EE291E00E946D
:101CC000A02E80933B068FE291E00E94A02E80938D
:101CD000EF0480E391E00E94AE2E90932105809363
:101CE000200582E391E00E94AE2E9093FD04809344
:101CF000FC0484E391E00E94AE2E9093FF04809355
:101D0000FE0486E391E00E94A02E8093030587E302
:101D100091E00E94A02E8093040588E391E00E9448
:101D2000A02E8093FA0489E391E00E94A02E809374
:101D30004006DF91CF911F910F91FF90EF90089592
:101D40002F923F924F925F926F927F928F929F92CB
:101D5000AF92BF92CF92DF92EF92FF920F931F93B9
:101D6000DF93CF9300D000D0CDB7DEB780910C05C4
:101D7000882309F001C481E080930C0587E491E099
:101D80009093100580930F058BE38093650082EAA2
:101D900080936600882499241A82198230EAE32EFF
:101DA00036E8F32E31E0032F112D20E1A22E27E299
:101DB000B22EC12CD12C98EE492E93E0592E612CD5
:101DC000712C01C0410129803A80220C331C220C65
:101DD000331CC101815B9A4F9C838B83FC01608122
:101DE000718182819381A80197010E94632E205DF9
:101DF000F401E959FF4F2083EB81FC8160817181FF
:101E000082819381A80197010E94632EA60195010A
:101E10000E94632E205DF401E859FF4F2083EB817F
:101E2000FC816081718182819381A80197010E9468
:101E3000632EA60195010E94632EA30192010E94C8
:101E4000632E205DF401E759FF4F2083EB81FC8175
:101E50006081718182819381A80197010E94632E24
:101E6000A60195010E94632EA30192010E94632E98
:101E700024E630E040E050E00E94632E205DF40153
:101E8000E659FF4F2083EB81FC8160817181828163
:101E90009381A80197010E94632EA60195010E94DB
:101EA000632EA30192010E94632E24E630E040E0FD
:101EB00050E00E94632E2AE030E040E050E00E94B3
:101EC000632E205DF401E559FF4F2083EB81FC81F7
:101ED0006081718182819381A80197010E94632EA4
:101EE000A60195010E94632EA30192010E94632E18
:101EF00024E630E040E050E00E94632E2AE030E02B
:101F000040E050E00E94632E605DF401E459FF4F11
:101F10006083C10189569A4F9C838B83FC01608149
:101F2000718182819381A80197010E94632E205DB7
:101F3000F401E359FF4F2083EB81FC8160817181C3
:101F400082819381A80197010E94632EA6019501C9
:101F50000E94632E205DF401E259FF4F2083EB8144
:101F6000FC816081718182819381A80197010E9427
:101F7000632EA60195010E94632EA30192010E9487
:101F8000632E205DF401E159FF4F2083EB81FC813A
:101F90006081718182819381A80197010E94632EE3
:101FA000A60195010E94632EA30192010E94632E57
:101FB00024E630E040E050E00E94632E205DF40112
:101FC000E059FF4F2083EB81FC8160817181828128
:101FD0009381A80197010E94632EA60195010E949A
:101FE000632EA30192010E94632E24E630E040E0BC
:101FF00050E00E94632E2AE030E040E050E00E9472
:10200000632E205DF401EF58FF4F2083EB81FC81AC
:102010006081718182819381A80197010E94632E62
:10202000A60195010E94632EA30192010E94632ED6
:1020300024E630E040E050E00E94632E2AE030E0E9
:1020400040E050E00E94632E605DF401EE58FF4FC7
:102050006083C10181529A4F9C838B83FC01608114
:10206000718182819381A80197010E94632E205D76
:10207000F401ED58FF4F2083EB81FC816081718179
:1020800082819381A80197010E94632EA601950188
:102090000E94632E205DF401EC58FF4F2083EB81FA
:1020A000FC816081718182819381A80197010E94E6
:1020B000632EA60195010E94632EA30192010E9446
:1020C000632E205DF401EB58FF4F2083EB81FC81F0
:1020D0006081718182819381A80197010E94632EA2
:1020E000A60195010E94632EA30192010E94632E16
:1020F00024E630E040E050E00E94632E205DF401D1
:10210000EA58FF4F2083EB81FC81608171818281DD
:102110009381A80197010E94632EA60195010E9458
:10212000632EA30192010E94632E24E630E040E07A
:1021300050E00E94632E2AE030E040E050E00E9430
:10214000632E205DF401E958FF4F2083EB81FC8171
:102150006081718182819381A80197010E94632E21
:10216000A60195010E94632EA30192010E94632E95
:1021700024E630E040E050E00E94632E2AE030E0A8
:1021800040E050E00E94632E605DF401E858FF4F8C
:102190006083C1018D589A4F9C838B83FC016081C1
:1021A000718182819381A80197010E94632E205D35
:1021B000F401E758FF4F2083EB81FC81608171813E
:1021C00082819381A80197010E94632EA601950147
:1021D0000E94632E205DF401E658FF4F2083EB81BF
:1021E000FC816081718182819381A80197010E94A5
:1021F000632EA60195010E94632EA30192010E9405
:10220000632E205DF401E558FF4F2083EB81FC81B4
:102210006081718182819381A80197010E94632E60
:10222000A60195010E94632EA30192010E94632ED4
:1022300024E630E040E050E00E94632E205DF4018F
:10224000E458FF4F2083EB81FC81608171818281A2
:102250009381A80197010E94632EA60195010E9417
:10226000632EA30192010E94632E24E630E040E039
:1022700050E00E94632E2AE030E040E050E00E94EF
:10228000632E205DF401E358FF4F2083EB81FC8136
:102290006081718182819381A80197010E94632EE0
:1022A000A60195010E94632EA30192010E94632E54
:1022B00024E630E040E050E00E94632E2AE030E067
:1022C00040E050E00E94632E605DF401E258FF4F51
:1022D0006083C10185549A4F9C838B83FC0160818C
:1022E000718182819381A80197010E94632E205DF4
:1022F000F401E158FF4F2083EB81FC816081718103
:1023000082819381A80197010E94632EA601950105
:102310000E94632E205DF401E058FF4F2083EB8183
:10232000FC816081718182819381A80197010E9463
:10233000632EA60195010E94632EA30192010E94C3
:10234000632E205DF401EF57FF4F2083EB81FC816A
:102350006081718182819381A80197010E94632E1F
:10236000A60195010E94632EA30192010E94632E93
:1023700024E630E040E050E00E94632E205DF4014E
:10238000EE57FF4F2083EB81FC8160817181828158
:102390009381A80197010E94632EA60195010E94D6
:1023A000632EA30192010E94632E24E630E040E0F8
:1023B00050E00E94632E2AE030E040E050E00E94AE
:1023C000632E205DF401ED57FF4F2083EB81FC81EC
:1023D0006081718182819381A80197010E94632E9F
:1023E000A60195010E94632EA30192010E94632E13
:1023F00024E630E040E050E00E94632E2AE030E026
:1024000040E050E00E94632E605DF401EC57FF4F06
:102410006083C1018D5F994F9C838B83FC01608138
:10242000718182819381A80197010E94632E205DB2
:10243000F401EB57FF4F2083EB81FC8160817181B8
:1024400082819381A80197010E94632EA6019501C4
:102450000E94632E205DF401EA57FF4F2083EB8139
:10246000FC816081718182819381A80197010E9422
:10247000632EA60195010E94632EA30192010E9482
:10248000632E205DF401E957FF4F2083EB81FC812F
:102490006081718182819381A80197010E94632EDE
:1024A000A60195010E94632EA30192010E94632E52
:1024B00024E630E040E050E00E94632E205DF4010D
:1024C000E857FF4F2083B4E22B2E312C280C391C07
:1024D000EB81FC816081718182819381A8019701E8
:1024E0000E94632EA60195010E94632EA301920112
:1024F0000E94632E24E630E040E050E00E94632E0C
:102500002AE030E040E050E00E94632E205DF101BF
:10251000EB59FF4F2083EB81FC81608171818281C7
:102520009381A80197010E94632EA60195010E9444
:10253000632EA30192010E94632E24E630E040E066
:1025400050E00E94632E2AE030E040E050E00E941C
:10255000632E605DF401E657FF4F608389819A81A5
:1025600001969A8389838930910509F02BCC83EBFE
:102570008093AB010E948A030F900F900F900F90F1
:10258000CF91DF911F910F91FF90EF90DF90CF904F
:10259000BF90AF909F908F907F906F905F904F9083
:1025A0003F902F9008954F925F926F927F928F92FB
:1025B0009F92AF92BF92CF92DF92EF92FF920F93D2
:1025C0001F93CF93DF9381E080930C058CE190E023
:1025D0009093100580930F058BE38093650083EA49
:1025E0008093660080919604805D8093670080915F
:1025F000600090916100C4E6D0E0BE010E94502EC0
:10260000605D60936800BAE0CB2ED12CB6010E94C9
:10261000502E605D6093690080916400805D8093BE
:102620006A008091620090916300BE010E943C2E7E
:10263000605D60936B00B6010E943C2E605D60930C
:102640006C00805D80936D006091790470917A04D4
:1026500080917B0490917C04A8EEEA2EA3E0FA2EF0
:10266000012D112DA80197010E94632E205D20935A
:102670006E006091790470917A0480917B0490914E
:102680007C04A80197010E94632EF4E68F2E912C02
:10269000A12CB12CA50194010E94632E205D2093F2
:1026A0006F006091790470917A0480917B0490911D
:1026B0007C04A80197010E94632EA50194010E9449
:1026C000632EEAE04E2E512C612C712CA301920155
:1026D0000E94632E205D20937000609179047091B8
:1026E0007A0480917B0490917C04A80197010E9458
:1026F000632EA50194010E94632EA30192010E9402
:10270000632E605D6093710080917D04805D809395
:102710007200E0907504F0907604009177041091B7
:102720007804C801B70120E030E048EC52E40E9490
:10273000682C20E030E040E452E40E94002C0E942B
:10274000D02C60937300C801B7010E94D02CCB013C
:10275000BE010E943C2EB6010E943C2E605D60933B
:102760007400805D80937500809171049091720473
:10277000BE010E943C2E605D60937600B6010E940F
:102780003C2E605D60937700805D8093780080913F
:10279000730490917404BE010E943C2E605D6093AE
:1027A0007900B6010E943C2E605D60937A00805DE6
:1027B00080937B00609192047091930480919404C3
:1027C0009091950450EAE52E56E8F52E51E0052F3C
:1027D000112DA80197010E94632E205D20937C009B
:1027E0006091920470919304809194049091950467
:1027F00040E1A42E47E2B42EC12CD12CA6019501B4
:102800000E94632ECA01B901A30192010E94632EA6
:10281000605D60937D0060918E0470918F04809163
:10282000900490919104A80197010E94632E205D6D
:1028300020937E0060918E0470918F0480919004AB
:1028400090919104A60195010E94632ECA01B901DD
:10285000A30192010E94632E605D60937F0083EB71
:10286000809380000E948A03DF91CF911F910F9186
:10287000FF90EF90DF90CF90BF90AF909F908F90A0
:102880007F906F905F904F9008958091FA0481300F
:1028900021F0823009F088C071C02091200530916C
:1028A00021058091220590912305281B390B37FFC4
:1028B00003C0309521953F4F8091FE049091FF0415
:1028C0004091FC045091FD04841B950B62E070E084
:1028D0000E94502E77FF03C0709561957F4F41E0B5
:1028E00050E02617370714F440E050E080910105CE
:1028F00090E0842B952B20912605009751F081E0E4
:102900008093000584E3809303052F5F20932605C1
:1029100006C02E3120F410920005109226058091F9
:102920000005882309F040C0809120059091210581
:102930002091FE043091FF04281739071CF021E094
:102940002093FB042091FC043091FD04821793072F
:1029500014F01092FB048091FB04882329F0AB9AB9
:1029600083E38093030501C0AB988091200590918B
:102970002105909323058093220508958091F70403
:10298000813011F482E308C0882341F480913C0631
:10299000882321F4AB9880E3809303051092FA0416
:1029A000109226051092000508952F923F924F92A3
:1029B0005F926F927F928F929F92AF92BF92CF92CF
:1029C000DF92EF92FF920F931F93DF93CF93CDB7D8
:1029D000DEB765970FB6F894DEBF0FBECDBF1B8282
:1029E0001A821D821C821982F8948AB3806F8ABB76
:1029F00084B3806C84BB8AB3887F8ABB00E407B948
:102A000083EA86B9369A81B3806F81BB84B38F60C5
:102A100084BB82B38F7082BB85B3807F85BBA59A50
:102A2000A49AAD9AAC98D39ADB98DB9A84E191E0B2
:102A30000197F1F70000DB98BB9A2FEF3FE543E0E9
:102A4000215030404040E1F700C000000E94620485
:102A500009BF82E085BD8FE184BD78940E94380370
:102A60000E94E0021092130588EE93E00E94AE2EC1
:102A70008D31910511F40E94850C80914A058823BF
:102A800021F081E08093050502C0109205051092A7
:102A90004B0510924C0510924D05809111059091B7
:102AA000120587FF33C080913D068F5F80933D06FE
:102AB000823079F0833018F48130F9F405C0833026
:102AC00079F08430D1F411C081E060E047E954E04E
:102AD00004C082E060E04BEA54E00E94B9040DC0FB
:102AE00083E060E04FEB54E0F8CF84E060E043ED3A
:102AF00054E00E94B90410923D0680911105909116
:102B000012058F779093120580931105809111051E
:102B10009091120591FF38C280911305882319F016
:102B20008130B9F516C081E062E644E00E940D02F2
:102B30008E8381E062E642E00E940D028A8781E096
:102B400062E641E00E940D028E8781E080931305CA
:102B500020C080914E058F5F80934E058431C9F46B
:102B6000CE01089662E644E00E94C1018F83CE0147
:102B70000C9662E642E00E94C1018B87CE0140962E
:102B800062E641E00E94C1018F8710921305109206
:102B90004E058F818823B1F51B821A821D821C820B
:102BA00030E2398388859985BE016E5F7F4FAE0123
:102BB0004C5F5F4F9E012F5F3F4F0E9424058A812B
:102BC0009B816AE070E00E943C2E282FCB016AE0D6
:102BD00070E00E943C2E805D8093B004205D2093C5
:102BE000B1044EE24093B2048C819D8168EE73E0A3
:102BF0000E943C2ECB016AE070E00E943C2E805D7A
:102C00008093B3048B858823B1F51B821A821D82C1
:102C10001C8250E259838C859D85BE016E5F7F4F7B
:102C2000AE014C5F5F4F9E012F5F3F4F0E94240516
:102C30008A819B816AE070E00E943C2E282FCB01A4
:102C40006AE070E00E943C2E805D8093C404205DA9
:102C50002093C5048EE28093C6048C819D8168EE2A
:102C600073E00E943C2ECB016AE070E00E943C2E93
:102C7000805D8093C7048F858823B1F51B821A82FB
:102C80001D821C8290E2998388899989BE016E5FBA
:102C90007F4FAE014C5F5F4F9E012F5F3F4F0E9401
:102CA00024058A819B816AE070E00E943C2E282FD7
:102CB000CB016AE070E00E943C2E805D8093D804D6
:102CC000205D2093D904AEE2A093DA048C819D812B
:102CD00068EE73E00E943C2ECB016AE070E00E9437
:102CE0003C2E805D8093DB040E94F50240915206E9
:102CF000242F22952F7030E0C901880F991FF3E02F
:102D0000220F331FFA95E1F7820F931F4F70840F44
:102D1000911D6AE070E00E94502E605D6093970400
:102D2000805D80939804BAE3B09399044091510672
:102D3000242F22952F7030E0C901880F991F73E06E
:102D4000220F331F7A95E1F7820F931F4F70840F84
:102D5000911D6AE070E00E94502E605D60939A04BD
:102D6000805D80939B04EAE3E0939C0440915006CD
:102D7000242F22952F7030E0C901880F991F53E04E
:102D8000220F331F5A95E1F7820F931F4F70840F64
:102D9000911D6AE070E00E94502E605D60939D047A
:102DA000805D80939E04209139052F5F2093390523
:102DB00084B180934C0695B1909348069D8B1C8AF4
:102DC000CC88DD88C80ED11CC601AA2797FDA09526
:102DD000BA2F8093140590931505A0931605B09310
:102DE0001705213061F48093180590931905A0937D
:102DF0001A05B0931B0581E4D82ED7B8369A809176
:102E000039058230A1F48091140590911505A091A7
:102E10001605B091170580931C0590931D05A0938E
:102E20001E05B0931F0502E4E02EE7B8369A8091A4
:102E30003905833071F480911405909115059093B4
:102E400021058093200510E4F12EF7B8369A1092F0
:102E500039056091650470916604809167049091D2
:102E60006804209118053091190540911A05509178
:102E70001B050E94112E2091690430916A04409133
:102E80006B0450916C04620F731F841F951F28EE12
:102E900033E040E050E00E94632E209330063093F0
:102EA00031064093320650933306CA01B90128EE29
:102EB00033E040E050E00E94632E205D2093BA048E
:102EC00024E630E040E050E00E94632E205D209335
:102ED000BB042EE22093BC042AE030E040E050E046
:102EE0000E94632E205D2093BD04605D6093BE044C
:102EF00060916D0470916E0480916F0490917004E4
:102F000020911C0530911D0540911E0550911F0513
:102F10000E94112E28EE33E040E050E00E94632E24
:102F20002093340630933506409336065093370687
:102F3000CA01B90128EE33E040E050E00E94632E60
:102F4000205D2093CE043EE23093CF0424E630E0AF
:102F500040E050E00E94632E205D2093D0042AE0E0
:102F600030E040E050E00E94632E205D2093D104C9
:102F7000605D6093D20480911105909112059D7F50
:102F8000909312058093110580911105909112057F
:102F900092FD02C00C948B29809165028B3309F05D
:102FA000FCC68091660290E001978931910508F096
:102FB000F4C6865D9F4FFC01EE0FFF1F0590F49154
:102FC000E02D099480917B02833B09F061C08091E0
:102FD0006702813321F481E08093F00402C01092F3
:102FE000F00480916802813321F481E08093F10440
:102FF00002C01092F10480916902813321F481E0D2
:103000008093F20402C01092F20480916A0281332C
:1030100021F481E08093F30402C01092F3048091C4
:103020006B02813321F481E08093F40402C010929A
:10303000F40480916C02813339F481E08093F504CB
:1030400082E38093400604C01092F504109240067B
:1030500080916D02813339F481E08093F60482E33C
:103060008093040504C01092F60410920405809128
:103070006E02813339F481E08093F70482E3809318
:10308000030504C01092F7041092030510927B020E
:1030900080916F02813309F076C080914A058F5F7D
:1030A00080934A058A3009F053C060917002909174
:1030B00071022091720234E6639FB0011124989F3F
:1030C000C0011124680F791F620F711D882777FDD9
:1030D0008095982F0E94FE2C23E333E343E250E4D3
:1030E0000E94AE2D262F372F482F592F20933A05B7
:1030F00030933B0540933C0550933D0529E02093D8
:103100004A05E0907504F0907604009177041091E0
:103110007804A80197010E94642C87FF08C0E09200
:103120003A05F0923B0500933C0510933D058091D4
:103130003A0590913B05A0913C05B0913D058093E7
:10314000420590934305A0934405B09345050CC0F8
:1031500080E090E0AFE7B3E480933A0590933B05BD
:10316000A0933C05B0933D0560913A0570913B05F5
:1031700080913C0590913D050E94D02C6CBF82E36C
:1031800080933F0607C01CBE10924A0510923F066E
:1031900010920505609173020091740270E080E066
:1031A00090E02AE030E040E050E00E94112E600FF5
:1031B000711D811D911D20E137E240E050E00E9429
:1031C000112E605071498045904060938204709345
:1031D0008304809384049093850460917502009128
:1031E000760270E080E090E02AE030E040E050E0DD
:1031F0000E94112E600F711D811D911D20E137E28B
:1032000040E050E00E94112E60507149804590408E
:1032100060937E0470937F04809380049093810474
:10322000609177020091780270E080E090E02AE0FF
:1032300030E040E050E00E94112E600F711D811DB2
:10324000911D20E137E240E050E00E94112E6050D5
:1032500071498045904060938A0470938B048093F9
:103260008C0490938D046091790200917A0270E051
:1032700080E090E02AE030E040E050E00E94112E33
:10328000600F711D811D911D20E137E240E050E08B
:103290000E94112E605071498045904060938604D1
:1032A00070938704809388049093890476C59091E5
:1032B0006702809168028051990F292F220F220FF7
:1032C000290F820F80934D069091690280916A02C6
:1032D0008051990F292F220F220F290F820F8093DF
:1032E0004E0690916B0280916C028051990F292FAC
:1032F000220F220F290F820F80934F060E941F0377
:1033000080916D02833B09F048C510926D0243C560
:103310001092420681E080934306FFC381E08093D0
:10332000E80480916702805380939604809168023C
:103330004091690224E6829FC0011124EAE04E9F79
:10334000A0011124840F951F805A9441909361002D
:103350008093600090916A029053909364009091E2
:103360006B0280916C0260916D0270E0605D74414F
:10337000929F90011124620F731F8E9FC001112430
:10338000680F791F882777FD8095982F0E94FE2C63
:1033900023E333E343E250E40E94AE2D0E94D02C9D
:1033A000709363006093620080916E02833B09F02A
:1033B000F4C410926E02EFC482E08093E80410928D
:1033C000ED041092EC0410924B05A7C381E08093AA
:1033D000E904D0906702C090680260916902E090B1
:1033E0006A02FF2400E010E020EB3FE24FEF5FEFC6
:1033F000E20EF31E041F151F70E080E090E02AE04B
:1034000030E040E050E00E94112EE60EF71E081F4B
:10341000191F6D2D70E080E090E00E94112E6C0D60
:10342000711D811D911D24E630E040E050E00E94B6
:10343000112EE60EF71E081F191FE0927904F09274
:103440007A0400937B0410937C0480916B02805378
:1034500080937D0420916C0290916D0260916E02C8
:1034600070E0605D744184E6289F90011124620F32
:10347000731F8AE0989FC0011124680F791F882765
:1034800077FD8095982F0E94FE2C23E333E343E2DF
:1034900050E40E94AE2D609375047093760480937F
:1034A00077049093780480916F02833B09F075C490
:1034B00010926F0270C482E08093E90410924D056F
:1034C0002CC381E08093EE04209167026091680232
:1034D0008091690290E0805D944144E6249F9001D0
:1034E0001124820F931F2AE0629FB0011124860FDE
:1034F000971F909372048093710450916A023091E7
:103500006B0280916C0290E0805D9441549FA00119
:103510001124840F951F329F90011124820F931F55
:10352000909374048093730460916D0200916E0215
:1035300070E080E090E02AE030E040E050E00E945F
:10354000112E600F711D811D911D20E137E240E0B9
:1035500050E00E94112E6050714980459040609368
:1035600092047093930480939404909395046091D3
:103570006F020091700270E080E090E02AE030E09D
:1035800040E050E00E94112E600F711D811D911DC1
:1035900020E137E240E050E00E94112E6050714976
:1035A0008045904060938E0470938F0480939004C4
:1035B0009093910480917102833B09F0EEC31092C5
:1035C0007102E9C31092EE0480913B06882309F052
:1035D000A4C2AA98A2C281E08093FA048091200537
:1035E0009091210590932305809322051092010567
:1035F00094C21092FB0482E08093FA048EC2809100
:103600002005909121059093FD048093FC0485C2D0
:1036100080912005909121059093FF048093FE04F2
:103620007CC20E94D31279C200E010E01B8A1A8A81
:1036300003C08601BB8AAA8AF801E959FD4FB08010
:10364000F801E859FD4FA080F801E759FD4F90803F
:10365000F801E659FD4F8080F801E559FD4F608182
:10366000F801E459FD4FC080DD24EE24FF2480EBF7
:103670009EE9AEEABFEFC80ED91EEA1EFB1E70E03F
:1036800080E090E02AE030E040E050E00E94112E1F
:10369000C60ED71EE81EF91E6B2D70E080E090E08C
:1036A0000E94112E6A0D711D811D911D20E137E2CE
:1036B00040E050E00E94112EC60ED71EE81EF91EF3
:1036C000692D70E080E090E02AE030E040E050E0DA
:1036D0000E94112E680D711D811D911D24E630E0A0
:1036E00040E050E00E94112EC60ED71EE81EF91EC3
:1036F0004A885B88440C551C440C551CF201E15B64
:10370000FA4FC082D182E282F382F801E359FD4F81
:10371000B080F801E259FD4FA080F801E159FD4F5A
:103720009080F801E059FD4F8080F801EF58FD4F7F
:103730006081F801EE58FD4FC080DD24EE24FF24A7
:1037400020EB3EE94EEA5FEFC20ED31EE41EF51EEB
:1037500070E080E090E02AE030E040E050E00E943D
:10376000112EC60ED71EE81EF91E6B2D70E080E0EC
:1037700090E00E94112E6A0D711D811D911D20E1A6
:1037800037E240E050E00E94112EC60ED71EE81E20
:10379000F91E692D70E080E090E02AE030E040E022
:1037A00050E00E94112E680D711D811D911D24E6AF
:1037B00030E040E050E00E94112EC60ED71EE81EF9
:1037C000F91EF201ED58FA4FC082D182E282F382F3
:1037D000F801ED58FD4FB080F801EC58FD4FA08086
:1037E000F801EB58FD4F9080F801EA58FD4F8080BA
:1037F000F801E958FD4F6081F801E858FD4FC0809D
:10380000DD24EE24FF2480EB9EE9AEEABFEFC80E74
:10381000D91EEA1EFB1E70E080E090E02AE030E056
:1038200040E050E00E94112EC60ED71EE81EF91E81
:103830006B2D70E080E090E00E94112E6A0D711DEA
:10384000811D911D20E137E240E050E00E94112EE1
:10385000C60ED71EE81EF91E692D70E080E090E0CC
:103860002AE030E040E050E00E94112E680D711D0A
:10387000811D911D24E630E040E050E00E94112EB1
:10388000C60ED71EE81EF91EF201E956FA4FC08295
:10389000D182E282F382F801E758FD4FB080F8014F
:1038A000E658FD4FA080F801E558FD4F9080F801E3
:1038B000E458FD4F8080F801E358FD4F6081F80126
:1038C000E258FD4FC080DD24EE24FF2420EB3EE9CA
:1038D0004EEA5FEFC20ED31EE41EF51E70E080E0DC
:1038E00090E02AE030E040E050E00E94112EC60E49
:1038F000D71EE81EF91E6B2D70E080E090E00E945C
:10390000112E6A0D711D811D911D20E137E240E0ED
:1039100050E00E94112EC60ED71EE81EF91E692D1A
:1039200070E080E090E02AE030E040E050E00E946B
:10393000112E680D711D811D911D24E630E040E0BF
:1039400050E00E94112EC60ED71EE81EF91EF2018D
:10395000E554FA4FC082D182E282F382F801E15845
:10396000FD4FB080F801E058FD4FA080F801EF57FF
:10397000FD4F9080F801EE57FD4F8080F801ED5724
:10398000FD4F6081F801EC57FD4FC080DD24EE242F
:10399000FF2480EB9EE9AEEABFEFC80ED91EEA1EF7
:1039A000FB1E70E080E090E02AE030E040E050E074
:1039B0000E94112EC60ED71EE81EF91E6B2D70E058
:1039C00080E090E00E94112E6A0D711D811D911DF5
:1039D00020E137E240E050E00E94112EC60ED71ED3
:1039E000E81EF91E692D70E080E090E02AE030E0EA
:1039F00040E050E00E94112E680D711D811D911D47
:103A000024E630E040E050E00E94112EC60ED71EA2
:103A1000E81EF91EF201E152FA4FC082D182E28221
:103A2000F382F801EB57FD4F9080F801EA57FD4F04
:103A30008080F801E957FD4F6080F801E857FD4F9D
:103A40002080AA88BB880894A11CB11CA4E2CA2EBD
:103A5000D12CC00ED11EF601EB59FD4F6081F8014B
:103A6000E657FD4FE080FF2400E010E020EB3EE948
:103A70004EEA5FEFE20EF31E041F151F70E080E0B8
:103A800090E02AE030E040E050E00E94112EE60E87
:103A9000F71E081F191F692D70E080E090E00E945A
:103AA000112E680D711D811D911D20E137E240E04E
:103AB00050E00E94112EE60EF71E081F191F662DFA
:103AC00070E080E090E02AE030E040E050E00E94CA
:103AD000112E620D711D811D911D24E630E040E024
:103AE00050E00E94112EE60EF71E081F191FF2016A
:103AF000ED5FF94FE082F1820283138339E0A31670
:103B0000B10409F096CD8091AB03833B09F045C128
:103B10001092AB0340C10E94A00E80916702833BCC
:103B200009F03BC11092670236C18091180590914F
:103B30001905909328058093270560916702D0901E
:103B40006802C0906902E0906A02FF2400E010E081
:103B500080EB9FE2AFEFBFEFE80EF91E0A1F1B1FBD
:103B600070E080E090E028EE33E040E050E00E941A
:103B7000112EE60EF71E081F191F6D2D70E080E054
:103B800090E024E630E040E050E00E94112EE60E86
:103B9000F71E081F191F6C2D70E080E090E02AE0EE
:103BA00030E040E050E00E94112EE60EF71E081FA4
:103BB000191FE0922D05F0922E0500932F0510930A
:103BC000300560916B02D0906C02C0906D02E09065
:103BD0006E02FF2400E010E020EB3FE24FEF5FEFCA
:103BE000E20EF31E041F151F70E080E090E028EE47
:103BF00033E040E050E00E94112EE60EF71E081F51
:103C0000191F6D2D70E080E090E024E630E040E088
:103C100050E00E94112EE60EF71E081F191F6C2D92
:103C200070E080E090E02AE030E040E050E00E9468
:103C3000112EE60EF71E081F191FE0923105F092B3
:103C4000320500933305109334059FC00091180589
:103C50001091190510932A050093290560902D05F0
:103C600070902E0580902F059090300520902705AC
:103C700030902805442455248091310590913205D7
:103C8000A0913305B091340574016301C81AD90AB3
:103C9000EA0AFB0AC701B60128EE33E040E050E033
:103CA0000E94112E20E030E072016101C01AD10A99
:103CB000E20AF30AA70196010E94852ED22EC32E96
:103CC000B42EA52E209365043093660440936704B8
:103CD00050936804C401B30128EE33E040E050E0A3
:103CE0000E94112E7B018C016D2D7C2D8B2D9A2D28
:103CF000A20191010E94112EE61AF70A080B190B76
:103D0000E0926904F0926A0400936B0410936C04CF
:103D10003CC000911C0510911D0510932C050093CB
:103D20002B0520916F02909170026091710270E0FA
:103D3000605D744184E6289F90011124620F731F17
:103D40008AE0989FC0011124680F791F882777FDAA
:103D50008095982F609335057093360580933705CD
:103D60009093380528EE33E040E050E00E94112E99
:103D7000980140E050E00E94632E20936D04309340
:103D80006E0440936F045093700480917202833BE1
:103D900021F4109272021092660260919A0470E00F
:103DA00080E090E02AE030E040E050E00E94112EF8
:103DB00020919B04620F711D811D911D24E630E04E
:103DC00040E050E00E94112E3B014C0160919D04A7
:103DD00070E080E090E02AE030E040E050E00E94B7
:103DE000112E5B016C0180919E04A80EB11CC11CB8
:103DF000D11CF0EBEF2EFEE9FF2EFEEA0F2FFFEFB6
:103E00001F2FEA0CFB1C0C1D1D1D6091970470E018
:103E100080E090E00E94112E20919804620F711DA5
:103E2000811D911D20E137E240E050E00E94112EFB
:103E3000E60EF71E081F191FE60CF71C081D191DBA
:103E4000E0922C06F0922D0600932E0610932F067A
:103E5000D601C5018055904DA040B040860D971DFC
:103E6000A81DB91D8093270690932806A0932906C4
:103E7000B0932A06AC988091F9048F5F8093F9047F
:103E8000833009F076C620912C0630912D064091A2
:103E90002E0650912F0680914F0590915005A091CC
:103EA0005105B0915205281739074A075B0758F1A9
:103EB00020912C0630912D0640912E0650912F0610
:103EC0008091730590917405A0917505B091760568
:103ED000281739074A075B07B0F420914F05309146
:103EE0005005409151055091520580917305909174
:103EF0007405A0917505B0917605281739074A0712
:103F00005B0709F083C020912C0630912D0640916B
:103F10002E0650912F068091970590919805A091BB
:103F20009905B0919A05281739074A075B0758F198
:103F300020912C0630912D0640912E0650912F068F
:103F40008091BB059091BC05A091BD05B091BE05C7
:103F5000281739074A075B07B0F42091970530917D
:103F600098054091990550919A058091BB059091D3
:103F7000BC05A091BD05B091BE05281739074A07B9
:103F80005B0709F043C020912C0630912D0640912B
:103F90002E0650912F068091DF059091E005A091AB
:103FA000E105B091E205281739074A075B0750F190
:103FB00020912C0630912D0640912E0650912F060F
:103FC0008091030690910406A0910506B091060623
:103FD000281739074A075B07A8F42091DF053091BD
:103FE000E0054091E1055091E20580910306909132
:103FF0000406A0910506B0910606281739074A075E
:104000005B0721F48091F004813011F4949A03C08D
:1040100094981092F00420912C0630912D06409136
:104020002E0650912F068091530590915405A09132
:104030005505B0915605281739074A075B0758F10F
:1040400020912C0630912D0640912E0650912F067E
:104050008091770590917805A0917905B0917A05C6
:10406000281739074A075B07B0F4209153053091B0
:1040700054054091550550915605809177059091D2
:104080007805A0917905B0917A05281739074A0774
:104090005B0709F083C020912C0630912D064091DA
:1040A0002E0650912F0680919B0590919C05A09122
:1040B0009D05B0919E05281739074A075B0758F1FF
:1040C00020912C0630912D0640912E0650912F06FE
:1040D0008091BF059091C005A091C105B091C20526
:1040E000281739074A075B07B0F420919B053091E8
:1040F0009C0540919D0550919E058091BF05909132
:10410000C005A091C105B091C205281739074A071B
:104110005B0709F043C020912C0630912D06409199
:104120002E0650912F068091E3059091E405A09111
:10413000E505B091E605281739074A075B0750F1F6
:1041400020912C0630912D0640912E0650912F067D
:104150008091070690910806A0910906B0910A0681
:10416000281739074A075B07A8F42091E305309127
:10417000E4054091E5055091E60580910706909190
:104180000806A0910906B0910A06281739074A07C0
:104190005B0721F48091F104813011F4959A03C0FA
:1041A00095981092F10420912C0630912D064091A3
:1041B0002E0650912F068091570590915805A09199
:1041C0005905B0915A05281739074A075B0758F176
:1041D00020912C0630912D0640912E0650912F06ED
:1041E00080917B0590917C05A0917D05B0917E0525
:1041F000281739074A075B07B0F42091570530911B
:1042000058054091590550915A0580917B05909130
:104210007C05A0917D05B0917E05281739074A07D6
:104220005B0709F083C020912C0630912D06409148
:104230002E0650912F0680919F059091A005A09188
:10424000A105B091A205281739074A075B0758F165
:1042500020912C0630912D0640912E0650912F066C
:104260008091C3059091C405A091C505B091C60584
:10427000281739074A075B07B0F420919F05309152
:10428000A0054091A1055091A2058091C305909190
:10429000C405A091C505B091C605281739074A077E
:1042A0005B0709F043C020912C0630912D06409108
:1042B0002E0650912F068091E7059091E805A09178
:1042C000E905B091EA05281739074A075B0750F15D
:1042D00020912C0630912D0640912E0650912F06EC
:1042E00080910B0690910C06A0910D06B0910E06E0
:1042F000281739074A075B07A8F42091E705309192
:10430000E8054091E9055091EA0580910B069091EE
:104310000C06A0910D06B0910E06281739074A0722
:104320005B0721F48091F204813011F4969A03C066
:1043300096981092F20420912C0630912D0640910F
:104340002E0650912F0680915B0590915C05A091FF
:104350005D05B0915E05281739074A075B0758F1DC
:1043600020912C0630912D0640912E0650912F065B
:1043700080917F0590918005A0918105B091820583
:10438000281739074A075B07B0F420915B05309185
:104390005C0540915D0550915E0580917F0590918F
:1043A0008005A0918105B0918205281739074A0739
:1043B0005B0709F083C020912C0630912D064091B7
:1043C0002E0650912F068091A3059091A405A091EF
:1043D000A505B091A605281739074A075B0758F1CC
:1043E00020912C0630912D0640912E0650912F06DB
:1043F0008091C7059091C805A091C905B091CA05E3
:10440000281739074A075B07B0F42091A3053091BC
:10441000A4054091A5055091A6058091C7059091EE
:10442000C805A091C905B091CA05281739074A07E0
:104430005B0709F043C020912C0630912D06409176
:104440002E0650912F068091EB059091EC05A091DE
:10445000ED05B091EE05281739074A075B0750F1C3
:1044600020912C0630912D0640912E0650912F065A
:1044700080910F0690911006A0911106B09112063E
:10448000281739074A075B07A8F42091EB053091FC
:10449000EC054091ED055091EE0580910F0690914D
:1044A0001006A0911106B0911206281739074A0785
:1044B0005B0721F48091F304813011F4979A03C0D3
:1044C00097981092F30420912C0630912D0640917C
:1044D0002E0650912F0680915F0590916005A09166
:1044E0006105B0916205281739074A075B0758F143
:1044F00020912C0630912D0640912E0650912F06CA
:104500008091830590918405A0918505B0918605E1
:10451000281739074A075B07B0F420915F053091EF
:1045200060054091610550916205809183059091ED
:104530008405A0918505B0918605281739074A079B
:104540005B0709F083C020912C0630912D06409125
:104550002E0650912F068091A7059091A805A09155
:10456000A905B091AA05281739074A075B0758F132
:1045700020912C0630912D0640912E0650912F0649
:104580008091CB059091CC05A091CD05B091CE0541
:10459000281739074A075B07B0F42091A705309127
:1045A000A8054091A9055091AA058091CB0590914D
:1045B000CC05A091CD05B091CE05281739074A0743
:1045C0005B0709F043C020912C0630912D064091E5
:1045D0002E0650912F068091EF059091F005A09145
:1045E000F105B091F205281739074A075B0750F12A
:1045F00020912C0630912D0640912E0650912F06C9
:104600008091130690911406A0911506B09116069C
:10461000281739074A075B07A8F42091EF05309166
:10462000F0054091F1055091F205809113069091AB
:104630001406A0911506B0911606281739074A07E7
:104640005B0721F48091F404813011F4A89A03C02F
:10465000A8981092F40420912C0630912D064091D8
:104660002E0650912F068091630590916405A091CC
:104670006505B0916605281739074A075B0758F1A9
:1046800020912C0630912D0640912E0650912F0638
:104690008091870590918805A0918905B0918A0540
:1046A000281739074A075B07B0F42091630530915A
:1046B000640540916505509166058091870590914C
:1046C0008805A0918905B0918A05281739074A07FE
:1046D0005B0709F083C020912C0630912D06409194
:1046E0002E0650912F068091AB059091AC05A091BC
:1046F000AD05B091AE05281739074A075B0758F199
:1047000020912C0630912D0640912E0650912F06B7
:104710008091CF059091D005A091D105B091D2059F
:10472000281739074A075B07B0F42091AB05309191
:10473000AC054091AD055091AE058091CF059091AB
:10474000D005A091D105B091D205281739074A07A5
:104750005B0709F043C020912C0630912D06409153
:104760002E0650912F068091F3059091F405A091AB
:10477000F505B091F605281739074A075B0750F190
:1047800020912C0630912D0640912E0650912F0637
:104790008091170690911806A0911906B0911A06FB
:1047A000281739074A075B07A8F42091F3053091D1
:1047B000F4054091F5055091F6058091170690910A
:1047C0001806A0911906B0911A06281739074A074A
:1047D0005B0721F48091F504813089F48091E8042D
:1047E000882309F4A99A81E080933A0680914006D3
:1047F0008253823048F081E38093400605C0A99837
:104800001092F50410923A0620912C0630912D0654
:1048100040912E0650912F06809167059091680572
:10482000A0916905B0916A05281739074A075B0707
:1048300058F120912C0630912D0640912E06509172
:104840002F0680918B0590918C05A0918D05B091DC
:104850008E05281739074A075B07B0F420916705D2
:10486000309168054091690550916A0580918B05EA
:1048700090918C05A0918D05B0918E052817390770
:104880004A075B0709F083C020912C0630912D0662
:1048900040912E0650912F068091AF059091B00562
:1048A000A091B105B091B205281739074A075B07F7
:1048B00058F120912C0630912D0640912E065091F2
:1048C0002F068091D3059091D405A091D505B09184
:1048D000D605281739074A075B07B0F42091AF05C2
:1048E0003091B0054091B1055091B2058091D3054A
:1048F0009091D405A091D505B091D6052817390718
:104900004A075B0709F043C020912C0630912D0621
:1049100040912E0650912F068091F7059091F80551
:10492000A091F905B091FA05281739074A075B07E6
:1049300050F120912C0630912D0640912E06509179
:104940002F0680911B0690911C06A0911D06B09128
:104950001E06281739074A075B07A8F42091F705B8
:104960003091F8054091F9055091FA0580911B06A8
:1049700090911C06A0911D06B0911E0628173907BC
:104980004A075B0721F48091F604813089F4809115
:10499000EE04882309F4AA9A81E080933B06809173
:1049A00004058253823048F081E38093040505C0FA
:1049B000AA981092F60410923B0620912C06309192
:1049C0002D0640912E0650912F0680916B059091F7
:1049D0006C05A0916D05B0916E05281739074A073F
:1049E0005B0758F120912C0630912D0640912E0640
:1049F00050912F0680918F0590919005A09191057F
:104A0000B0919205281739074A075B07B0F4209147
:104A10006B0530916C0540916D0550916E0580914C
:104A20008F0590919005A0919105B091920528175E
:104A300039074A075B0709F083C020912C063091A3
:104A40002D0640912E0650912F068091B30590912E
:104A5000B405A091B505B091B605281739074A07E6
:104A60005B0758F120912C0630912D0640912E06BF
:104A700050912F068091D7059091D805A091D90526
:104A8000B091DA05281739074A075B07B0F420917F
:104A9000B3053091B4054091B5055091B6058091AC
:104AA000D7059091D805A091D905B091DA052817BE
:104AB00039074A075B0709F043C020912C06309163
:104AC0002D0640912E0650912F068091FB05909166
:104AD000FC05A091FD05B091FE05281739074A078E
:104AE0005B0750F120912C0630912D0640912E0647
:104AF00050912F0680911F0690912006A0912106CB
:104B0000B0912206281739074A075B07A8F42091BD
:104B1000FB053091FC054091FD055091FE0580910B
:104B20001F0690912006A0912106B0912206281719
:104B300039074A075B0721F48091F704813089F433
:104B40008091FA04882309F4AB9A81E080933C06B3
:104B5000809103058253823048F081E380930305FE
:104B600005C0AB981092F70410923C061092F9041D
:104B7000AC9A20912C0630912D0640912E06509132
:104B80002F068091860490918704A0918804B091AB
:104B9000890482179307A407B50708F080C1209104
:104BA0002C0630912D0640912E0650912F068091B3
:104BB0008A0490918B04A0918C04B0918D042817E5
:104BC00039074A075B0708F06AC120912C0630912B
:104BD0002D0640912E0650912F0680916F059091E1
:104BE0007005A0917105B0917205281739074A0721
:104BF0005B0758F120912C0630912D0640912E062E
:104C000050912F068091930590919405A091950560
:104C1000B0919605281739074A075B07B0F4209131
:104C20006F0530917005409171055091720580912A
:104C3000930590919405A0919505B091960528173C
:104C400039074A075B0709F084C020912C06309190
:104C50002D0640912E0650912F068091B705909118
:104C6000B805A091B905B091BA05281739074A07C8
:104C70005B0758F120912C0630912D0640912E06AD
:104C800050912F068091DB059091DC05A091DD0508
:104C9000B091DE05281739074A075B07B0F4209169
:104CA000B7053091B8054091B9055091BA0580918A
:104CB000DB059091DC05A091DD05B091DE0528179C
:104CC00039074A075B0709F044C020912C06309150
:104CD0002D0640912E0650912F068091FF05909150
:104CE0000006A0910106B0910206281739074A076D
:104CF0005B0750F120912C0630912D0640912E0635
:104D000050912F068091230690912406A0912506AC
:104D1000B0912606281739074A075B07A8F42091A7
:104D2000FF053091000640910106509102068091E6
:104D3000230690912406A0912506B09126062817F7
:104D400039074A075B0729F480910505882309F490
:104D500054C080914C058F5F80934C058A3051F58B
:104D600060913A0570913B0580913C0590913D051D
:104D700060934205709343058093440590934505E5
:104D800029E020934C05E0907504F09076040091A2
:104D9000770410917804A80197010E94642C87FF82
:104DA00015C0E0924205F09243050093440510932C
:104DB00045050CC080E090E0AFE7B3E48093420586
:104DC00090934305A0934405B09345056091420537
:104DD0007091430580914405909145050E94D02C27
:104DE0006CBF80913F06823309F459C0843309F4C3
:104DF00056C081E380933F0652C010924C058091CB
:104E00004A05882359F060913A0570913B058091DD
:104E10003C0590913D050E94D02C6CBF80914D05C2
:104E2000882359F0609146057091470580914805A7
:104E3000909149050E94D02C6CBF80914B0588232E
:104E400059F060913E0570913F0580914005909129
:104E500041050E94D02C6CBF21E030E080914D05CF
:104E6000882311F020E030E081E090E040914C0593
:104E7000442311F080E090E02823392391E08091D1
:104E80004B05811190E081E040914A05411180E09D
:104E9000892390E082239323009709F01CBE209180
:104EA0002C0630912D0640912E0650912F068091B0
:104EB0008E0490918F04A0919004B0919104821778
:104EC0009307A407B50708F06BC020912C0630911A
:104ED0002D0640912E0650912F06809192049091BC
:104EE0009304A0919404B0919504281739074A07B8
:104EF0005B0708F055C08091EE04882309F440C098
:104F00008091300690913106A0913206B09133061F
:104F1000209171043091720440E050E082179307B1
:104F2000A407B50718F021E02093EF042091730443
:104F30003091740440E050E0281739074A075B07B6
:104F400010F01092EF048091EF04882329F083E39E
:104F500080930405AA9A24C0AA9880913B068823CE
:104F600019F091E3909304059091F604992319F0B8
:104F700022E320930405992399F4882389F40DC032
:104F80008091F604813011F482E308C0882341F453
:104F900080913B06882321F4AA9880E3809304053E
:104FA00020912C0630912D0640912E0650912F060F
:104FB00080917E0490917F04A0918004B09181043F
:104FC00082179307A407B507B8F420912C063091F7
:104FD0002D0640912E0650912F06809182049091CB
:104FE0008304A0918404B0918504281739074A07E7
:104FF0005B0710F4AD9801C0AD9A0E945B050E945A
:10500000451480914306882311F00E94270890B32D
:1050100083B381708295807F92959F70890F809372
:10502000380680B343B34295407F82958F70480F16
:10503000409339069091F104990F8091F204880F02
:10504000880F892B9091F004892B9091F304990F8C
:10505000990F990F982B8091F4048295807F892B6A
:1050600080933E0650914A0521E030E080914D0545
:10507000882311F020E030E081E090E060914C0561
:10508000662311F080E090E02823392391E080919D
:105090004B05811190E081E0511180E0892390E07F
:1050A00082239323009719F080E380933F06709149
:1050B000EE0421E080913B06811120E081E0909197
:1050C000F604911180E0282330E081E090E077231E
:1050D00011F080E090E082239323009719F080E3A1
:1050E000809304056091000521E030E0662311F013
:1050F00020E030E081E090E0E091FB04EE2311F04D
:1051000080E090E02823392391E080913C068111D2
:1051100090E081E0E091F704E11180E0892390E0E4
:1051200082239323009719F080E38093030521E005
:1051300080913A06811120E081E09091F50491116F
:1051400080E0282330E081E090E0E091EC04EE2361
:1051500011F080E090E082239323009719F080E320
:10516000809340069091E80480914106913011F4BB
:10517000816001C08E7F809341069091E904809107
:105180004106913011F4826001C08D7F8093410609
:1051900080914106713011F4846001C08B7F80934F
:1051A00041069091FA0480914106913011F4886093
:1051B00001C0877F80934106E0EFF4E080E09191A9
:1051C000552309F4911181E024E0E83FF207B9F793
:1051D0008093F8046623B1F091E29093A20485E4F1
:1051E0008093A30482E58093A4048093A5042FE414
:1051F0002093A6048093A7049093A80430E23093F0
:10520000A9042BC0882391F081E28093A2048093AB
:10521000A30498E49093A40451E45093A5049EE45D
:105220009093A60494E49093A70413C084E580931C
:10523000A20489E48093A3048DE48093A40485E40C
:105240008093A50482E58093A60483E58093A70458
:1052500080E28093A8048093A904842F40FF02C0B9
:1052600091E301C09DE29093DE0481FF04C092E3CC
:105270009093DF0403C0ADE2A093DF0482FF04C07B
:1052800093E39093E00403C0BDE2B093E00483FF96
:1052900004C094E39093E10403C0EDE2E093E104E1
:1052A00084FF04C095E39093E20403C0FDE2F09311
:1052B000E20485FF04C096E39093E30404C0EDE2AA
:1052C000CE2EC092E30486FF04C087E38093E404FB
:1052D00004C07DE2D72ED092E40447FF04C088E3E7
:1052E0008093E50404C06DE2E62EE092E5048CB7FD
:1052F000882329F053E4F52EF092E60403C02DE252
:105300002093E60480911105909112059B7F909364
:10531000120580931105809111059091120594FF5B
:1053200010C0DB9A84E191E00197F1F70000DB986F
:1053300080911105909112059F7E909312058093A4
:105340001105809111059091120595FF22C280915F
:105350000C05882309F014C281E080930C0583E4D6
:1053600090E09093100580930F0560913A0570913D
:105370003B0580913C0590913D0523E333E343E2F7
:1053800050E40E94682C0E94D02C3B0170930705CA
:10539000609306058BE38093650081EA8093660045
:1053A00080919704809367008091980480936800AF
:1053B00080919A048093690080919B0480936A0095
:1053C00080919D0480936B0080919E0480936C007B
:1053D0008091B00480936D008091B10480936E0041
:1053E0008091B30480936F008091C4048093700017
:1053F0008091C504809371008091C70480937200EE
:105400008091D804809373008091D90480937400B4
:105410008091DB04809375008091BA0480937600BC
:105420008091BB04809377008091BD0480937800C5
:105430008091BE04809379008091CE0480937A009D
:105440008091D00480937B008091D10480937C0074
:105450008091D20480937D008091380680937E00F5
:1054600080913E0680937F0080913F06809380006C
:10547000609165047091660480916704909168045E
:1054800028EE33E040E050E00E94852E205D20931E
:10549000810024E630E040E050E00E94852E205D4F
:1054A000209382002AE030E040E050E00E94852E08
:1054B000205D20938300605D60938400A090690468
:1054C000B0906A04C0906B04D0906C0440EAE42E63
:1054D00046E8F42E41E0042F112DC601B501A801C4
:1054E00097010E94852E205D20938500C601B5019D
:1054F00028EE33E040E050E00E94852ECA01B90159
:1055000024E630E040E050E00E94852E2AE030E0C2
:1055100040E050E00E94852E205D20938600605D73
:105520006093870060916D0470916E0480916F04A8
:105530009091700428EE33E040E050E00E94852E08
:10554000205D2093880024E630E040E050E00E9497
:10555000852E205D209389002AE030E040E050E075
:105560000E94852E205D20938A00605D60938B00F1
:105570008091410680938C008091FC049091FD0401
:1055800068EE73E00E94502E605D60938D0034E6FB
:10559000C32ED12CB6010E94502E605D60938E0008
:1055A0006AE070E00E94502E605D60938F00805D25
:1055B000809390008091FE049091FF0468EE73E068
:1055C0000E94502E605D60939100B6010E94502EA3
:1055D000605D609392006AE070E00E94502E605D12
:1055E00060939300805D809394008091200590915A
:1055F000210568EE73E00E94502E605D6093950077
:10560000B6010E94502E605D609396006AE070E0E3
:105610000E94502E605D60939700805D809398009B
:1056200080910305809399006091820470918304B6
:105630008091840490918504A80197010E94632EB3
:10564000205D20939A006091820470918304809180
:10565000840490918504A80197010E94632E20E1A3
:10566000822E27E2922EA12CB12CA50194010E943A
:10567000632E205D20939B0060917E0470917F04D7
:105680008091800490918104A80197010E94632E6B
:10569000205D20939C0060917E0470917F04809136
:1056A000800490918104A80197010E94632EA501B6
:1056B00094010E94632E205D20939D0060918A04D6
:1056C00070918B0480918C0490918D04A8019701B6
:1056D0000E94632E205D20939E0060918A04709149
:1056E0008B0480918C0490918D04A80197010E94F5
:1056F000632EA50194010E94632E205D20939F00DC
:105700006091860470918704809188049091890447
:10571000A80197010E94632E205D2093A000609154
:105720008604709187048091880490918904A8016F
:1057300097010E94632EA50194010E94632E205DB3
:105740002093A100C301B6010E943C2E605D6093CE
:10575000A2006AE070E00E943C2E605D6093A300AE
:10576000805D8093A400809104058093A5008091C2
:1057700040068093A60083EB8093A7000E948A03D3
:1057800080911105909112059F7D90931205809351
:105790001105809111059091120597FD02C00C949E
:1057A0004D158091FB048823B9F0809102058F5F2D
:1057B00080930205823081F4109202052091240525
:1057C00030912505809120059091210528173907F2
:1057D00019F481E0809301058091200590912105C5
:1057E00090932505809324058091110590911205D1
:1057F0009F7790931205809311050C944D15505886
:10580000BB27AA270ED070C161D130F066D120F03D
:1058100031F49F3F11F41EF456C10EF4E095E7FBFE
:105820004CC1E92F72D180F3BA176207730784075E
:10583000950718F071F49EF58AC10EF4E0950B2ED1
:10584000BA2FA02D0B01B90190010C01CA01A001D2
:105850001124FF27591B99F0593F50F4503E68F12D
:105860001A16F040A22F232F342F4427585FF3CF6E
:10587000469537952795A795F0405395C9F77EF43F
:105880001F16BA0B620B730B840BBAF09150A1F088
:10589000FF0FBB1F661F771F881FC2F70EC0BA0F0E
:1058A000621F731F841F48F4879577956795B79596
:1058B000F7959E3F08F0B3CF9395880F08F099278E
:1058C000EE0F979587950895D4D008F481E0089558
:1058D0000CD00AC102D140F0F9D030F021F45F3F82
:1058E00019F0EBC0511134C1EEC00FD198F39923D8
:1058F000C9F35523B1F3951B550BBB27AA27621794
:105900007307840738F09F5F5F4F220F331F441FD8
:10591000AA1FA9F333D00E2E3AF0E0E830D0915010
:105920005040E695001CCAF729D0FE2F27D0660FFD
:10593000771F881FBB1F261737074807AB07B0E83C
:1059400009F0BB0B802DBF01FF2793585F4F2AF052
:105950009E3F510568F0B1C0FBC05F3FECF3983E3D
:10596000DCF3869577956795B795F7959F5FC9F7AF
:10597000880F911D9695879597F90895E1E0660F38
:10598000771F881FBB1F621773078407BA0720F0B1
:10599000621B730B840BBA0BEE1F88F7E09508951A
:1059A000BCD088F09F5790F0B92F9927B751A0F03D
:1059B000D1F0660F771F881F991F1AF0BA95C9F7A3
:1059C00012C0B13081F0C3D0B1E00895C0C0672FDC
:1059D000782F8827B85F39F0B93FCCF38695779553
:1059E0006795B395D9F73EF490958095709561953C
:1059F0007F4F8F4F9F4F0895E89409C097FB3EF467
:105A000090958095709561957F4F8F4F9F4F99230B
:105A1000A9F0F92F96E9BB279395F6958795779589
:105A20006795B795F111F8CFFAF4BB0F11F460FF49
:105A30001BC06F5F7F4F8F4F9F4F16C0882311F0A1
:105A400096E911C0772321F09EE8872F762F05C0B5
:105A5000662371F096E8862F70E060E02AF09A9550
:105A6000660F771F881FDAF7880F9695879597F945
:105A70000895990F0008550FAA0BE0E8FEEF1616DF
:105A80001706E807F907C0F012161306E407F50732
:105A900098F0621B730B840B950B39F40A2661F0A6
:105AA000232B242B252B21F408950A2609F4A14049
:105AB000A6958FEF811D811D089597F99F6780E856
:105AC00070E060E008959FEF80EC089500240A9450
:105AD0001616170618060906089500240A941216C9
